:100000000C9408050C948D260C94B5260C942505AB
:100010000C9425050C9425050C94F1180C942505D9
:100020000C9425050C9460190C9425050C94250559
:100030000C9425050C9425050C9425050C94250598
:100040000C9425050C9425050C94F8170C94231892
:100050000C9425050C9434220C9425050C9436221E
:100060000C9425050C942505F10E040F040F040FC4
:10007000040F040F040F040F040F040F040F040FE8
:10008000040F9C0EA40EAC0EB40EBC0EC40ED10E0A
:10009000D90EE10EE90E110F991012127E12AF1354
:1000A00096166D16DD120710AE0FC80F6617C31334
:1000B000FE1339147414AF14EA14251560151116C3
:1000C00015169B15B51520617420253032643A252C
:1000D0003032643A25303264002061742025303299
:1000E000643A253032643A253032640025643A207F
:1000F000000A25692D2553000A25692D2553000A7C
:1001000025692D2553000A25692D2553000A2553FD
:10011000202553000A2025533A202569000A20256E
:10012000533A202569000A2025533A202569000A00
:100130002025533A202569002020253032643A25B5
:100140003032643A253032640A0025530020200002
:100150000A25533A000A25533A000A25533A000A61
:10016000253032643A253032643A25303264000A50
:1001700056616C75652069733A2569000A255344F8
:10018000202553210025532025533F0A00202553C5
:100190003A0020255325530A0025532025530A00F1
:1001A0002025533A0020255325530A0025532025A6
:1001B000530A002025533A0020255325530A0025D1
:1001C000532025530A002025533A00202553255358
:1001D0000A0025532025530A002025533A002025E4
:1001E0005325530A0025532025530A002025533A4E
:1001F0000020255325530A0025532025530A0020AB
:1002000025533A0020255325530A00255320255312
:100210000A002025533A0020255325530A00255370
:100220002025530A000A255325533A2569000A253B
:100230005325533A2569000A255325533A25690069
:100240000A255325533A2569000A255325533A2593
:1002500069000A255325533A2569000A2553255379
:100260003A256900255325533A2569000A202020A4
:100270002553000A25532569202D202553000A25E2
:10028000532569202D202553000A25532569202D4B
:100290002025530025532569202D2025530020209B
:1002A0002020255300255300202020000A2025531C
:1002B0003A25303258002025532025533A0A00258C
:1002C000532025530A002025532025533A0A0025A0
:1002D000532025530A002025532025533A0A002590
:1002E000532025530A002025532025533A0A002580
:1002F000532025530A000A25534420255321000A80
:100300002573000A255325533F0025532025533AD2
:100310000A000A25534420255321000A255344206E
:10032000255321002553202553733F0A0025692EAC
:1003300025532025530025692E25532025530A00D7
:1003400025692E25532025530A0025692E25530A99
:100350000025692E25532025532D25530A00256994
:100360002E25532025530A0025692E255320255379
:10037000730A0025692E25532025530A000A2020E0
:10038000202553000A202020255373000A20202016
:10039000202553000A2020202553000A2020202554
:1003A000533A25303169000A2020202025530025AA
:1003B00053002553004300200030322D4E6F7452FD
:1003C000656164790030312D506F77657220476F19
:1003D0006E65210030302D526567756C61746F72E7
:1003E0002053746172746564210045727200436C1D
:1003F0006561720050484F4E45002D455854002D00
:10040000504152002D445331383232002D44533183
:1004100038423230002D44533138533230002053AB
:10042000656E736F7273666F756E6400542D45440C
:10043000474553004D495353494E470041425345A8
:100440004E43450053656E736F7200414C41524DEF
:10045000005345434F4E4400484F5552004D494EBE
:100460005554450054494D45005341564500544F9D
:1004700020454550524F4D00444946460054454D95
:1004800050004D4158004D494E0041535349474E8D
:100490007300564945570053455400434845434B64
:1004A00053554D004E732D5550534944452D444FDF
:1004B000574E0052455455524E00535550504C59CA
:1004C000004F5554444F4F5200494E444F4F520035
:1004D000534E002A2D4E45585400232D455849545B
:1004E00000524547554C41544F520050554D500015
:1004F0004F4B0000000000003E5B4F5B3E3E6B4FE9
:100500006B3E1C3E7C3E1C183C7E3C181C577D57A5
:100510001C1C5E7F5E1C00183C1800FFE7C3E7FF51
:100520000018241800FFE7DBE7FF30483A060E26E4
:1005300029792926407F050507407F05253F5A3C3C
:10054000E73C5A7F3E1C1C08081C1C3E7F14227F7F
:1005500022145F5F005F5F06097F017F0066899557
:100560006A606060606094A2FFA29408047E040840
:1005700010207E201008082A1C08081C2A08081EC3
:10058000101010100C1E0C1E0C30383E3830060EA9
:100590003E0E06000000000000005F0000000700A3
:1005A0000700147F147F14242A7F2A12231308645F
:1005B0006236495522500005030000001C2241000C
:1005C0000041221C0014083E081408083E080800D8
:1005D0005030000008080808080060600000201083
:1005E0000804023E5149453E00427F4000426151AD
:1005F00049462141454B311814127F102745454586
:10060000393C4A494930017109050336494949369F
:10061000064949291E0036360000005636000008FB
:10062000142241001414141414004122140802016D
:10063000510906324979413E7E1111117E7F4949A7
:1006400049363E414141227F4141221C7F4949496F
:10065000417F090909013E4149497A7F0808087F1D
:1006600000417F41002040413F017F081422417F2B
:10067000404040407F020C027F7F0408107F3E41D3
:1006800041413E7F090909063E4151215E7F09191A
:100690002946464949493101017F01013F40404017
:1006A0003F1F2040201F3F4038403F631408146321
:1006B00007087008076151494543007F4141000226
:1006C000040810200041417F000402010204404060
:1006D000404040000102040020545454787F4844B4
:1006E00044383844444420384444487F38545454AF
:1006F00018087E0901020C5252523E7F0804047809
:1007000000447D40002040443D007F10284400000C
:10071000417F40007C041804787C08040478384445
:100720004444387C14141408081414187C7C0804FD
:1007300004084854545420043F4440203C40402086
:100740007C1C2040201C3C4030403C442810284465
:100750000C5050503C4464544C4400083641000056
:10076000007F000000413608001008081008784695
:100770004146781EA1A161123A4040207A38545473
:100780005559215555794121545478412155547872
:100790004020545579400C1E527212395555555906
:1007A000395454545939555454580000457C41002B
:1007B00002457D420001457C40F0292429F0F028C3
:1007C0002528F07C545545002054547C547C0A095B
:1007D0007F4932494949323248484832324A4848CA
:1007E000303A4141217A3A42402078009DA0A07DD4
:1007F00039444444393D4040403D3C24FF24244892
:100800007E4943662B2FFC2F2BFF0929F620C08839
:100810007E090320545479410000447D413048480A
:100820004A32384040227A007A0A0A727D0D193124
:100830007D2629292F28262929292630484D402080
:10084000380808080808080808382F10C8ACBA2F5C
:10085000102834FA00007B000008142A1422221405
:100860002A1408AA005500AAAA55AA55AA000000F1
:10087000FF00101010FF00141414FF001010FF00F0
:10088000FF1010F010F0141414FC001414F700FF03
:100890000000FF00FF1414F404FC141417101F10C0
:1008A000101F101F1414141F00101010F00000006F
:1008B000001F101010101F10101010F0100000007A
:1008C000FF101010101010101010FF10000000FF8B
:1008D000140000FF00FF00001F10170000FC04F4CC
:1008E00014141710171414F404F40000FF00F71484
:1008F000141414141414F700F7141414171410100B
:100900001F101F141414F4141010F010F000001F26
:10091000101F0000001F14000000FC140000F01065
:10092000F01010FF10FF141414FF141010101F000B
:10093000000000F010FFFFFFFFFFF0F0F0F0F0FF0D
:10094000FFFF0000000000FFFF0F0F0F0F0F3844E4
:100950004438447C2A2A3E147E02020606027E02A5
:100960007E0263554941633844443C04407E201E66
:100970002006027E020299A5E7A5991C2A492A1C95
:100980004C7201724C304A4D4D303048784830BC82
:10099000625A463D3E494949007E0101017E2A2AAC
:1009A0002A2A2A44445F444440514A444040444A2D
:1009B00051400000FF0103E080FF000008086B6B5E
:1009C000083612362436060F090F060000181800E4
:1009D00000001010003040FF0101001F01011E0047
:1009E000191D1712003C3C3C3C0000000000415423
:1009F0002B434D47443D00220A0041542B434D47B1
:100A0000533D22000A0041542B434D47523D000004
:100A100011241FBECFEFD8E0DEBFCDBF12E0A0E0B3
:100A2000B1E0E8E7FDE502C005900D92A23AB107FA
:100A3000D9F726E0A2EAB2E001C01D92AB3FB207AF
:100A4000E1F70E94100C0C94BA2E0C9400008F92C7
:100A50009F92BF92CF92EF920F931F93CF93DF930A
:100A60005D988AE08A95F1F70F2EF3E0CF2EF02DF6
:100A7000B12C6894EE24E3F80F2EF2EB8F2EF2E007
:100A80009F2EF02D01E00E94A31B8823E9F0EDE7E3
:100A9000F3E0AAEAB2E08E2D01900D928A95E1F77B
:100AA000E401102F0CC0EDE7F3E0DE018E2D019084
:100AB0000D928A95E1F71F5F2896143041F00E944D
:100AC000AC1B8111F0CF01C01B2DCA94E1F65D9AD9
:100AD000812FDF91CF911F910F91EF90CF90BF9019
:100AE0009F908F900895CF93DF93CDB7DEB72A976D
:100AF0000FB6F894DEBF0FBECDBF4AE0BE016F5FF8
:100B00007F4F0E94EF2787EB93E00E941621CE01D2
:100B100001960E94012185EB93E00E9416212A96FE
:100B20000FB6F894DEBF0FBECDBFDF91CF91089511
:100B300080E880BF10927A008FE380937E0083E08C
:100B400080937F000895FF920F931F93CF93DF93BD
:100B5000C0916403D091650300E010E0F12C01C066
:100B60001F2D28E00202C001112448E050E0BE0120
:100B700028E01202600D711D112486559D4F0E94C0
:100B80007C2A892B29F01F5F14305CF3802F04C06E
:100B90000F5F04302CF383E6DF91CF911F910F910B
:100BA000FF90089580E090E028E0DC01A655BD4F5D
:100BB000E0916403F0916503E80FF91F322F019073
:100BC0000D923A95E1F708968032910571F70895F4
:100BD0000E94561E62E080E00E94DE1E85EC93E0DB
:100BE0009F938F938AE491E09F938F930E94312B80
:100BF0000E94B91D2FEF81E19AE72150804090407B
:100C0000E1F700C000000F900F900F900F90089533
:100C1000CF9380910001882309F4ACC0EEE3F3E0A8
:100C200082E493E0C0E021912F3709F0CF5FE8170D
:100C3000F907C9F78091CA02C81718F40E94561E16
:100C400002C00E946921C093CA0280910F011F92C5
:100C50008F93809110011F928F93809111011F92A9
:100C60008F9388E391E09F938F930E94312B8DB7F0
:100C70009EB708960FB6F8949EBF0FBE8DBF8091A9
:100C8000D6028823D1F020913E032F37B1F0822F76
:100C9000992787FD90959F932F9389EC94E09F93DC
:100CA0008F938FE291E09F938F930E94312B0F904F
:100CB0000F900F900F900F900F908091D702882384
:100CC000D1F020913F032F37B1F0822F992787FD74
:100CD00090959F932F9381EC94E09F938F9386E25E
:100CE00091E09F938F930E94312B0F900F900F9064
:100CF0000F900F900F908091D8028823D1F020910F
:100D000040032F37B1F0822F992787FD90959F934D
:100D10002F938AEB94E09F938F938DE191E09F93C3
:100D20008F930E94312B0F900F900F900F900F9088
:100D30000F908091D9028823D1F0209141032F3761
:100D4000B1F0822F992787FD90959F932F9383EB86
:100D500094E09F938F9384E191E09F938F930E94FF
:100D6000312B0F900F900F900F900F900F901092CB
:100D7000000109C09FEF23ED80E3915020408040A7
:100D8000E1F700C00000CF91089590910F0180918C
:100D9000A2029817A1F080917603882381F08091B8
:100DA000A302882321F0289A1092A30204C0289855
:100DB00081E08093A30280910F018093A2020895A5
:100DC000FF920F931F93CF93DF93CDB7DEB72C978E
:100DD0000FB6F894DEBF0FBECDBF8C016894FF2420
:100DE000F2F8B80180E00E94B927811122C02FE7F4
:100DF0008FE492E1215080409040E1F700C0000074
:100E00000E94C506BE016F5F7F4FC8010E94742813
:100E100081110FC04AE0BE016D5F7F4F89819A81C9
:100E20000E94EF27811105C0CE0103960E944A2A35
:100E300004C0FA94B1F68FE790E02C960FB6F894C0
:100E4000DEBF0FBECDBFDF91CF911F910F91FF90FD
:100E500008950F931F93CF93DF9310913B0300915D
:100E60003C038091CB02833024F48F5F8093CB02CC
:100E700002C01092CB02C091CB02DD27C7FDD095F6
:100E8000FE01EA52FD4F8081882391F1CE01880F47
:100E9000991F880F991F880F991F86559D4F0E9493
:100EA000E006C25CDC4F88832091CB02332727FD0C
:100EB0003095F901E25CFC4F80818F37C9F4F9016C
:100EC000EE52FD4F8081823030F4F901EE52FD4F39
:100ED0008F5F80830DC0F901EA52FD4F1082F90146
:100EE000E453FD4F81E08083F901EE52FD4F108203
:100EF000809142038823A1F060913E03462F55273D
:100F000047FD509520913C03332727FD30952B5FFB
:100F10003F4F2417350734F46F3769F145E007C0B8
:100F200045E001C044E060913E036F3729F18091B4
:100F30003B0386170CF066C0262F332727FD30951C
:100F4000802F992787FD9095810F911D17FD9A9508
:100F500099230CF401969595879599278217930705
:100F60000CF052C080913C0386170CF04FC0443007
:100F700009F04EC02BC044E0209140032F3709F404
:100F800049C0309141033F3709F446C04530F1F480
:100F90004091790380913D03992787FD9095622FB9
:100FA000631B262F30E082179307E4F0552747FD97
:100FB0005095840F951F99230CF40196959587956C
:100FC0008617A0F042175307ACF018C0423091F0DA
:100FD00028F4442339F0413049F020C0433071F007
:100FE0004430E1F44398459A449A18C0459A43988E
:100FF000449814C045984398449810C0459A439A21
:1010000044980CC040E0E2CF41E0E0CF42E0DECFC8
:1010100043E0DCCF40E0DACF40E0D8CFDF91CF91A2
:101020001F910F910895FC01208121502E3F48F01F
:10103000319687E0919191509E3F28F08150D1F7F1
:1010400004C081E0089581E0089580E00895AF92A2
:10105000BF92CF92DF92EF92FF920F931F93CF93A5
:10106000DF93C0E0D0E000E010E0D12CCC24C394AA
:10107000A12CBB24B394E0906403F0906503EC0EC4
:10108000FD1EC7010E9413088823B1F0C7010E940A
:10109000E006F801E25CFC4F80838F3729F0F8010D
:1010A000EA52FD4FB08201C0CA2C8FE697E101974A
:1010B000F1F700C0000001C0D3940F5F1F4F2896C6
:1010C000C032D105C1F6DD2011F080E001C08C2DC9
:1010D000DF91CF911F910F91FF90EF90DF90CF9014
:1010E000BF90AF9008952F923F924F925F926F9270
:1010F0007F928F929F92AF92BF92CF92DF92EF92A8
:10110000FF920F931F93CF93DF9300D000D0CDB702
:10111000DEB79091D102923009F4A2C028F499234D
:1011200051F0913079F07AC1933009F433C19530A0
:1011300009F461C173C11092CB0281E08093D102A6
:1011400080E077C13090CB02032D112707FD109569
:10115000C801880F991F880F991F880F991F9C013C
:1011600026553D4F6901C9010E941308882309F4DF
:1011700057C1E0906403F09065030F2EFAEA8F2EBA
:10118000F2E09F2EF02D0F2EF6EDAF2EF2E0BF2EE7
:10119000F02D0F2EFAEC6F2EF2E07F2EF02DBC8298
:1011A000AB8291E09A83A1E0A98326010A521D4FE8
:1011B000212C48E050E0B701C6010E947C2A892B0F
:1011C00049F58B818A193816E9F148E050E0B401FD
:1011D000C6010E947C2AF201B40128E0DB015C9187
:1011E00030813D93BD01AB81BC814C91D8013C91D4
:1011F000AB81BC813C93009721F41082D8011C92F2
:1012000003C05083D8014C93215031962111E6CF71
:101210002A822982B8E0EB0EF11CE8E08E0E911CC8
:101220002B813C812F5F3F4F3C832B838614970497
:1012300009F0BFCF3981332329F082E08093D102B6
:1012400080E0F7C08A81882309F4ECC08091CB024A
:1012500083300CF0E9C08F5F8093CB0280E0E9C05F
:101260000E94561EE091CB0298E0E902F0011124A1
:10127000E655FD4F86811F928F9385811F928F9334
:1012800084811F928F9383811F928F9382811F92FB
:101290008F9381811F928F9380811F928F938CE215
:1012A00092E09F938F930E941D2B8AE894E09F9376
:1012B0008F9387E994E09F938F938DE091E09F93C4
:1012C0008F930E94312B0FB6F894DEBF0FBECDBFB7
:1012D0008091D602811112C089EC94E09F938F9384
:1012E0001F921F9286E091E09F938F930E94312B73
:1012F0000F900F900F900F900F900F908091D7024A
:10130000811113C081EC94E09F938F931F9281E031
:101310008F938FEF90E09F938F930E94312B0F90CC
:101320000F900F900F900F900F908091D802811125
:1013300013C08AEB94E09F938F931F9282E08F9368
:1013400088EF90E09F938F930E94312B0F900F9026
:101350000F900F900F900F908091D902811113C0C0
:1013600083EB94E09F938F931F9283E08F9381EFA1
:1013700090E09F938F930E94312B0F900F900F90CE
:101380000F900F900F900E94B91D83E08093D102BF
:1013900080E04FC090ED980F943008F047C0892F3F
:1013A00090E0FC01EA52FD4F208121111FC09C01F9
:1013B000220F331F220F331F220F331FA09164030C
:1013C000B0916503A20FB31FE091CB0228E0E202C7
:1013D000F0011124E655FD4F28E001900D922A9569
:1013E000E1F7FC01EA52FD4F21E0208385E0809384
:1013F000D10280E01EC040E250E06FE070E08091DA
:101400006403909165030E94932D8091CB028330F9
:101410007CF481E08093D10280E00BC080E009C0C1
:1014200081E007C080E005C081E003C080E001C02A
:1014300081E00F900F900F900F90DF91CF911F914F
:101440000F91FF90EF90DF90CF90BF90AF909F9063
:101450008F907F906F905F904F903F902F90089566
:1014600028E0829FC0011124FC01E655FD4F80E079
:1014700011928F5F8830E1F70895BF92CF92DF928B
:10148000EF92FF920F931F93CF93DF93B82E8FECC1
:1014900090E00E941E29EC01009709F47DC06C01C8
:1014A00080EAC80ED11C44E150E067E673E0C60153
:1014B0000E94A02A40EA50E069EB73E0CE010E944E
:1014C000682A4EE150E060ED74E083E493E00E940E
:1014D000682AFE0101900020E9F73197EC1BFD0B13
:1014E0000F2EF0EAEF2EF12CF02DA7014E1B5F0B13
:1014F00063E473E0CE010E94902A1F92BF928CEEAB
:1015000090E09F938F9303E413E01F930F930E9447
:10151000872BFE0101900020E9F73197EC1BFD0BB2
:10152000A7014E1B5F0BB801CE010E94902A80914B
:101530000F011F928F93809110011F928F938091C2
:1015400011011F928F9329ED30E03F932F931F934A
:101550000F930E94872BFE0101900020E9F731973D
:10156000EC1BFD0BA7014E1B5F0BB801CE010E94C7
:10157000902A0E94C50641E050E0BE01C6010E94CB
:10158000C224CE010E94B6298DB79EB740960FB6F1
:10159000F8949EBF0FBE8DBFEB2DF0E0E453FD4FDE
:1015A00010828B2D0E94300ADF91CF911F910F91F5
:1015B000FF90EF90DF90CF90BF9008950F931F930F
:1015C000CF93DF938FEC90E00E941E29EC010097EF
:1015D000D1F08C0100561F4F44E150E067E673E004
:1015E000C8010E94A02A40EA50E064ED73E0CE01F9
:1015F0000E94682A42E050E0BE01C8010E94C22455
:10160000CE010E94B629DF91CF911F910F910895CD
:101610000F931F93CF93DF938FEC90E00E941E29CE
:10162000EC01009709F446C08C0100561F4F44E1BD
:1016300050E067E673E0C8010E94A02A40EA50E04B
:1016400065EC73E0CE010E94682A80910F011F9221
:101650008F93809110011F928F93809111011F929F
:101660008F9386EC90E09F938F9383E493E09F9316
:101670008F930E94872BFE0101900020E9F7AE01B5
:101680004E1B5F0B4F555F4F63E473E0CE010E942A
:10169000902A42E050E0BE01C8010E94C224CE015F
:1016A0000E94B6298DB79EB70A960FB6F8949EBFD2
:1016B0000FBE8DBFDF91CF911F910F9108952091A3
:1016C0003F032F37C1F0809166038F3711F42093C9
:1016D000660330916603822F992787FD9095831BBF
:1016E00091090A9734F081E08093420320936603C6
:1016F00008951092420308958F929F92AF92BF92E5
:10170000CF92DF92EF92FF920F931F93CF93DF93CD
:1017100081E290E00E941E29909365038093640308
:10172000009709F44EC040E250E06FE070E00E9484
:101730007B2DC6EDD2E00F2EFEE3EF2EF3E0FF2E61
:10174000F02D00E010E06894882483F899249394A5
:101750008881811121C0C0906403D0906503C00EC0
:10176000D11EC6010E9413088823B1F0C6010E9451
:10177000E006F70180838F3779F0E0916403F09100
:101780006503E00FF11FD801A655BD4F882D0190CC
:101790000D928A95E1F798828FE697E10197F1F72C
:1017A00000C000002196085F1F4F9FEFE91AF90A59
:1017B0000032110569F680916403909165030E94DF
:1017C000B629DF91CF911F910F91FF90EF90DF909D
:1017D000CF90BF90AF909F908F90089581E290E05E
:1017E0000E941E2990936503809364030097B1F0D3
:1017F000DC011D9220E2FC0101900D922A95E1F797
:1018000040E250E06FE070E00E94B52D80916403EB
:10181000909165030E94B62981E0089580E00895C3
:10182000CF93DF93CDB7DEB764970FB6F894DEBFE2
:101830000FBECDBF81E091E09093F8068093F7064C
:101840004AB129B181E090E0BC0102C0660F771F68
:101850002A95E2F79B01209524232AB92BB139B1AF
:1018600002C0880F991F3A95E2F7822B8BB910922C
:1018700076031092250310922403109223031092F2
:10188000220310927B030E94651D4B9B04C00E94A3
:10189000E8050E94452A81E08093A7028093A60272
:1018A0001092A50281E290E00E941E2990936503A8
:1018B00080936403009709F492C040E250E06FE027
:1018C00070E00E947B2D1092D6028FE780933E033A
:1018D0001092D70280933F031092D8028093400366
:1018E0001092D9028093410386E390E00E948B2DF1
:1018F00080933B0385E390E00E948B2D80933C0313
:1019000084E390E00E948B2D8093630383E390E057
:101910000E948B2D80937A0382E390E00E948B2DAE
:101920008093770381E390E00E948B2D809378036E
:1019300080E390E00E948B2D809379038FE290E00A
:101940000E948B2D80933D034EE050E060E070E0FC
:1019500087E693E00E947B2D1092A402E4E6F0E07B
:101960008081886A808387B1806387B93B9A0E94AF
:10197000E418559A5D9A0E94561E61E085E00E9427
:10198000DE1E8BEE94E09F938F9382EB93E09F9308
:101990008F930E94312B62E083E00E94DE1E81EE75
:1019A00094E09F938F938FEA93E09F938F930E948D
:1019B000312B0E94B91D24E04AE250E06BE270E056
:1019C00089E290E00E940E1C78940E9427080FB6CE
:1019D000F894DEBF0FBECDBF882319F01FC00E9450
:1019E000452A0E94270580936203B3E0BE8713E077
:1019F0000CC0EFE6F7E13197F1F700C000000E945C
:101A0000270580936203115020F080916203843097
:101A100081F71E8781E08093D00206C00E94D20524
:101A200084E0809362031E8683E390E00E944D1859
:101A300087E00E94E0210E94D4210E940A190E949E
:101A4000561E80916203992787FD90950E94382148
:101A50008EE194E00E9416210E94B91D80916203DC
:101A6000843009F07DC00E94A305F82E082F1127AD
:101A700007FD10950336110509F04AC000E010E09B
:101A8000F12C0E945521C80101960E943821F801CD
:101A9000EE0FFF1FEE0FFF1FEE0FFF1FE655FD4F6E
:101AA0008081803129F485E194E00E9416210BC0E9
:101AB000823229F484E094E00E94162104C08CE074
:101AC00094E00E941621C801880F991F880F991F62
:101AD000880F991F86559D4F0E949C27811105C034
:101AE0008FEF93E00E94162104C08AEF93E00E94DA
:101AF0001621F3940F2D10E080916203992787FD42
:101B00009095081719070CF4BCCF0E94B91D4DC061
:101B10002BE434E03F932F9327EA33E03F932F9356
:101B20000E94312B1F93FF9284E494E09F938F9344
:101B30008BE993E09F938F930E94312B84E394E091
:101B40009F938F9384E993E09F938F930E94312B0F
:101B50000E94B91D0FB6F894DEBF0FBECDBF25C0E1
:101B60008BE494E09F938F938CE893E09F938F9303
:101B70000E94312B84E494E09F938F9384E893E058
:101B80009F938F930E94312B8CE394E09F938F93CC
:101B90008DE793E09F938F930E94312B0E94B91D94
:101BA0000FB6F894DEBF0FBECDBF7FEF89E698E198
:101BB000715080409040E1F700C000000E94561E26
:101BC000209A10927C0310923803109237030E94DF
:101BD0007F260E94A3261092CB028091D002811111
:101BE0000CC080916403909165030E94B6290E9405
:101BF000290781E08093760305C083E08093A702E4
:101C00001092D1021092420380913F0380936603A9
:101C10001B8AA1E0A98B0F2EFFE77F2EF02D0F2E40
:101C2000FFE76F2EF02D188A1F861A8A1C8A0CEC8B
:101C300012E00F2EF0EDEF2EF2E0FF2EF02D0F2E22
:101C4000F0E12F2EF1E03F2EF02D0F2EF1E14F2E7F
:101C5000F1E05F2EF02D02C0B4E0BE8780911F033B
:101C600081110C94EF17809137038823A1F081E054
:101C700080931F0310C0933070F04B9B06C00E94EE
:101C8000E8050E94080B0E94452AF8941092370339
:101C900010921F0378940E940022B82EEAE28E135D
:101CA00010C08091A40281110CC08091A702809382
:101CB000A60291E09093A702813009F4A5C00E948A
:101CC000561E8091A702813059F130F1833011F016
:101CD0000C9480178B2D0E947308882309F4BECFC3
:101CE0000E9429071092420380913F03809366036C
:101CF0001092CB028091A7028093A60281E080938C
:101D0000A7021092A50280937603809164039091BC
:101D100065030E94B629A2CF0E9408060C94801782
:101D20008B2D90E0FC01B397E731F10508F06CC012
:101D3000EC5CFF4F0C94F5288091A502811164C0E2
:101D400089E08093A50260C08091A50281115CC0EA
:101D500088E08093A5025BC18091A502811154C0E7
:101D600082E08093A5025EC38091A50281114CC0E0
:101D700085E08093A502DAC78091A502811144C055
:101D800084E08093A502EBC48091A50281113CC040
:101D900084E08093A50281E08093A402FAE0FF87AB
:101DA00033C08091A50281112FC086E08093A502E7
:101DB00094C78091A502811127C083E08093A5027A
:101DC0009DC38091A50281111FC087E08093A50269
:101DD000F4C38091A502811117C081E08093A50210
:101DE000A8C10E94561E0E94B91D8091A40288239A
:101DF00029F01092A5021092A40206C01092A70228
:101E000081E0809300012ACF4091A50250E04C3040
:101E1000510510F00C948017FA01E55BFF4F0C940C
:101E2000F5288091A402882321F00E94561E10926A
:101E3000A4020E94692184EF93E09F938F930F2E59
:101E4000F7E9AF2EF4E0BF2EF02DBF92AF921F92B4
:101E500081E08F9383E793E09F938F930E94312BD0
:101E600080ED94E09F938F930F2EF2E9CF2EF4E054
:101E7000DF2EF02DDF92CF921F9282E08F9388E6C3
:101E800093E09F938F930E94312B0F2EF4E68F2EB9
:101E9000F4E09F2EF02D9F928F92BF92AF921F92EF
:101EA00083E08F938EE593E09F938F930E94312B75
:101EB00082E894E09F938F9386E894E09F938F93BA
:101EC000BF92AF921F9284E08F9381E593E09F933E
:101ED0008F930E94312B0FB6F894DEBF0FBECDBF9B
:101EE0008EE694E09F938F931F9285E08F938AE410
:101EF00093E09F938F930E94312B9F928F92DF925A
:101F0000CF921F9286E08F9380E493E09F938F930C
:101F10000E94312B8AE894E09F938F93DF92CF92B7
:101F20001F9287E08F9386E393E09F938F930E94A5
:101F3000312B8CE294E09F938F93DF92CF921F928C
:101F400088E08F938DE293E09F938F930E94312BD3
:101F50000FB6F894DEBF0FBECDBFD2C70E94561E8B
:101F600080ED94E09F938F938EEE93E09F938F93F9
:101F700084E293E09F938F930E94312B8AE08093B9
:101F8000A5020F900F900F900F900F900F90B8C771
:101F90007AE2B71232C00E94EE0B8823A9F080EFDC
:101FA00094E09F938F938EEE93E09F938F938BE1BA
:101FB00093E09F938F930E94312B0F900F900F907F
:101FC0000F900F900F9014C08AEE93E09F938F9321
:101FD0008EEE93E09F938F9382E193E09F938F9394
:101FE0000E94312B0F900F900F900F900F900F9039
:101FF00081E08093A4021092A5028FEF99E6A8E1F8
:1020000081509040A040E1F700C0000079C7809166
:10201000A402811104C081E08093A40208C0BF859E
:10202000B130F9F020F0B23009F45BC069C70E940A
:10203000561E84EF93E09F938F9387E994E09F93DC
:102040008F938AE093E09F938F930E94312B0F90A0
:102050000F900F900F900F900F90188AE1E0EF878C
:102060004FC780ED8B0D8A3078F4F889FE3060F42C
:102070008B2D90E00E94532B2889E22FF0E0E95944
:10208000FC4FB0822F5F288B3AE2B31239C74889E0
:10209000E42FF0E00F2EF7E6CF2EF3E0DF2EF02D49
:1020A000E959FC4F10828EE694E09F938F9389E666
:1020B00094E09F938F9383E093E09F938F930E948C
:1020C000312BDF92CF928FEF92E09F938F930E94FC
:1020D000312B0FB6F894DEBF0FBECDBF72E07F8705
:1020E0000FC78AE2B8120CC7E7E6F3E001900020C0
:1020F000E9F7AF014756534060E070E087E693E0B0
:102100000E94B52D80EF94E09F938F9389E694E031
:102110009F938F9386EF92E09F938F930E94312B32
:102120000F900F900F900F900F900F9093E09F875C
:10213000E7C68091A402811104C081E08093A402CB
:1021400014C0AF85A23009F467C028F4AA2369F04F
:10215000A130B1F1D5C6BF85B43009F45FC108F430
:1021600087C0B53009F4AFC0CBC60E94561E83EDC0
:1021700094E09F938F938AED94E09F938F938FEEDB
:1021800092E09F938F930E94312B80ED94E09F9378
:102190008F9389EC94E09F938F9386EE92E09F93C8
:1021A0008F930E94312B0FB6F894DEBF0FBECDBFC8
:1021B0001B8AF1E0F98B188A25E02F871A8AA0C6BE
:1021C0000E94561E83ED94E09F938F938AED94E0D6
:1021D0009F938F938FED92E09F938F930E94312B6B
:1021E00080ED94E09F938F9381EC94E09F938F9385
:1021F00086ED92E09F938F930E94312B0FB6F89457
:10220000DEBF0FBECDBF71E07B8B82E0898B188A69
:1022100095E09F871A8A74C60E94561E83ED94E04B
:102220009F938F938AED94E09F938F938FEC92E02E
:102230009F938F930E94312B80ED94E09F938F9317
:102240008AEB94E09F938F9386EC92E09F938F9319
:102250000E94312B0FB6F894DEBF0FBECDBFB2E0A7
:10226000BB8BE3E0E98B188AF5E0FF871A8A48C642
:102270000E94561E83ED94E09F938F938AED94E025
:102280009F938F938FEB92E09F938F930E94312BBC
:1022900080ED94E09F938F9383EB94E09F938F93D3
:1022A00086EB92E09F938F930E94312B0FB6F894A8
:1022B000DEBF0FBECDBF33E03B8B198A188A45E0E5
:1022C0004F871A8A1DC680ED8B0D8A3008F0A2C098
:1022D0006A89673008F09AC08B2D90E00E94532BDA
:1022E0007889872F90E0E1E0F0E0EC0FFD1FE80F28
:1022F000F91FB082723018F47F5F788B8BC0E2E0F8
:10230000F0E0EC0FFD1FE80FF91F1082CE010196DF
:102310000E944A2A8F3F910511F00CF067C00F2EE2
:10232000F6E0CF2ED12CF02DCC0EDD1EAA89CA0EE0
:10233000D11CF601808383E00E946E21D6018C912E
:102340001F928F9385E292E09F938F930E941D2BA3
:1023500081E00E946E21BA89BF5FBA8B0F900F9007
:102360000F900F90B73009F054C01D86FE013696CD
:102370003B8928E0329FA001112446555D4F80E043
:1023800090E0232F30E069016191DA01A80FB91FB5
:102390006C93019687309105B1F767E070E0CE014C
:1023A00006960E94D326B82EF601EE0FFF1FEE0F01
:1023B000FF1FEE0FFF1FE655FD4F87831F928F9380
:1023C0008BE994E09F938F938CEA92E09F938F9395
:1023D0000E94312B0F900F900F900F900F900F9045
:1023E000188A44E04F8767E06E8714C083E00E943C
:1023F0006E2188EA92E09F938F930E94312B83E0B5
:102400000E946E210F900F90188A04C074E07F879D
:1024100001C0188A8AE2B81273C564C59AE2B9127B
:102420006FC563C58091A40281115EC081E0809375
:10243000A4020E94561E84EA94E09F938F9385EA3B
:1024400092E09F938F930E94312B0F2EF0EBCF2EB3
:10245000F2E0DF2EF02D0F2EF0EDAF2EF2E0BF2ECA
:10246000F02D0F900F900F900F90D6018C911F922E
:102470008F93F601319780811F928F9331978081DE
:102480001F928F93319780811F928F933197808114
:102490001F928F93319780811F928F933197808104
:1024A0001F928F93ABE2B2E0BF93AF930E941D2BBC
:1024B000F8E0CF0ED11C0FB6F894DEBF0FBECDBF33
:1024C000CA14DB0491F68AED94E09F938F938EE912
:1024D00092E09F938F930E94312B0F900F900F905B
:1024E0000F9034E03E870CC54FEF69E678E141502C
:1024F00060407040E1F700C0000002C58091A40276
:102500008111FEC40E94561E89EC94E09F938F9324
:102510001F92BB24B394BF920F2EF0EDCF2EF4E0A8
:10252000DF2EF02DDF92CF9284E992E09F938F937C
:102530000E94312B81EC94E09F938F931F9282E055
:102540008F93DF92CF9289E892E09F938F930E94BE
:10255000312B8AEB94E09F938F931F9283E08F93AC
:10256000DF92CF928EE792E09F938F930E94312B60
:1025700083EB94E09F938F931F9284E08F93DF927D
:10258000CF9283E792E09F938F930E94312B0FB6F7
:10259000F894DEBF0FBECDBF8AED94E09F938F937A
:1025A0008CE692E09F938F930E94312BB092A4020D
:1025B0000F900F900F900F90A3C48091A4028111EF
:1025C000C4C00E94561E20913B03822F992787FD8D
:1025D00090959F932F930F2EF6E8AF2EF4E0BF2E29
:1025E000F02DBF92AF920F2EF9EC8F2EF4E09F2EBC
:1025F000F02D9F928F9284E692E09F938F930E949A
:10260000312B20913C03822F992787FD90959F9332
:102610002F930F2EF2E8CF2EF4E0DF2EF02DDF9275
:10262000CF929F928F928BE592E09F938F930E941F
:10263000312B20916303822F992787FD90959F93DB
:102640002F93BF92AF920F2EF1EC8F2EF4E09F2EBE
:10265000F02D9F928F9282E592E09F938F930E943C
:10266000312B20917A03822F992787FD90959F9394
:102670002F93DF92CF929F928F9289E492E09F9363
:102680008F930E94312B0FB6F894DEBF0FBECDBFE3
:1026900020917703822F992787FD90959F932F9301
:1026A000BF92AF920F2EFAEB8F2EF4E09F2EF02DFB
:1026B0009F928F9280E492E09F938F930E94312BA0
:1026C00020917803822F992787FD90959F932F93D0
:1026D000DF92CF929F928F9287E392E09F938F93A6
:1026E0000E94312B20917903822F992787FD9095A5
:1026F0009F932F93BF92AF920F2EF8E7AF2EF4E087
:10270000BF2EF02DBF92AF928EE292E09F938F93F7
:102710000E94312B20913D03822F992787FD9095B0
:102720009F932F93DF92CF92BF92AF9285E292E078
:102730009F938F930E94312B81E08093A4020FB668
:10274000F894DEBF0FBECDBFDBC3FFEF29E638E153
:10275000F15020403040E1F700C00000D1C380912B
:10276000A402811104C081E08093A4020CC04F85B3
:10277000842F90E08C30910508F0C2C3FC01E95A27
:10278000FF4F0C94F5280E94561E83ED94E09F9312
:102790008F938AED94E09F938F938EE192E09F93C5
:1027A0008F930E94312B89EC94E09F938F938DE758
:1027B00094E09F938F9387E192E09F938F930E9481
:1027C000312B86E894E09F938F9382E192E09F9370
:1027D0008F930E94312B8BE393E09093A902809317
:1027E000A8020FB6F894DEBF0FBECDBF71E0798BA3
:1027F000188A89E08F8791E09E8782C30E94561EC7
:1028000083ED94E09F938F938AED94E09F938F9351
:102810008BE092E09F938F930E94312B89EC94E0A0
:102820009F938F938DE794E09F938F9384E092E042
:102830009F938F930E94312B82E894E09F938F9314
:102840008FEF91E09F938F930E94312B8CE393E065
:102850009093A9028093A8020FB6F894DEBF0FBE32
:10286000CDBFB2E0B98B188AE9E0EF87F1E0FE87CF
:1028700047C30E94561E83ED94E09F938F938AED89
:1028800094E09F938F9388EF91E09F938F930E94A2
:10289000312B81EC94E09F938F938DE794E09F938D
:1028A0008F9381EF91E09F938F930E94312B86E865
:1028B00094E09F938F938CEE91E09F938F930E946F
:1028C000312B83E693E09093A9028093A8020FB680
:1028D000F894DEBF0FBECDBF33E0398B188A49E0D4
:1028E0004F8761E06E870CC30E94561E83ED94E013
:1028F0009F938F938AED94E09F938F9385EE91E061
:102900009F938F930E94312B81EC94E09F938F9340
:102910008DE794E09F938F938EED91E09F938F933B
:102920000E94312B82E894E09F938F9389ED91E090
:102930009F938F930E94312B8AE793E09093A90293
:102940008093A8020FB6F894DEBF0FBECDBF94E00F
:10295000998B188AA9E0AF87B1E0BE87D1C20E94E7
:10296000561E83ED94E09F938F938AED94E09F939E
:102970008F9382ED91E09F938F930E94312B8AEB8E
:1029800094E09F938F938DE794E09F938F938BECCC
:1029900091E09F938F930E94312B86E894E09F9360
:1029A0008F9386EC91E09F938F930E94312B87E762
:1029B00093E09093A9028093A8020FB6F894DEBF2B
:1029C0000FBECDBFF5E0F98B188A29E02F8731E0E3
:1029D0003E8796C20E94561E83ED94E09F938F938C
:1029E0008AED94E09F938F938FEB91E09F938F9369
:1029F0000E94312B8AEB94E09F938F938DE794E0B4
:102A00009F938F9388EB91E09F938F930E94312B3C
:102A100082E894E09F938F9383EB91E09F938F9351
:102A20000E94312B88E793E09093A9028093A8023B
:102A30000FB6F894DEBF0FBECDBF76E0798B188A53
:102A400089E08F8791E09E875BC20E94561E83EDCE
:102A500094E09F938F938AED94E09F938F938CEAF9
:102A600091E09F938F930E94312B88E794E09F938E
:102A70008F938DE794E09F938F9385EA91E09F93E6
:102A80008F930E94312B86E894E09F938F9380EA86
:102A900091E09F938F930E94312B89E793E090936D
:102AA000A9028093A8020FB6F894DEBF0FBECDBF77
:102AB000B7E0B98B188AE9E0EF87F1E0FE8720C222
:102AC0000E94561E83ED94E09F938F938AED94E0CD
:102AD0009F938F9389E991E09F938F930E94312B6D
:102AE00088E794E09F938F938DE794E09F938F9373
:102AF00082E991E09F938F930E94312B82E894E0CA
:102B00009F938F938DE891E09F938F930E94312B39
:102B10008DE393E09093A9028093A8020FB6F894F6
:102B2000DEBF0FBECDBF3AE0398B188A49E04F8730
:102B300061E06E87E5C10E94561E8EE694E09F9389
:102B40008F9389E694E09F938F9385E891E09F931C
:102B50008F930E94312B0F900F900F900F900F903A
:102B60000F90198A7BE07F87CBC18AE2B8124FC0F1
:102B700060913B0386E390E00E94A32D60913C03AB
:102B800085E390E00E94A32D6091630384E390E0CD
:102B90000E94A32D60917A0383E390E00E94A32D0D
:102BA0006091770382E390E00E94A32D6091780307
:102BB00081E390E00E94A32D6091790380E390E08F
:102BC0000E94A32D60913D038FE290E00E94A32D0F
:102BD00040E250E06FE070E08AEA92E00E94932DBC
:102BE00080EF94E09F938F9389E694E09F938F9377
:102BF0008CE791E09F938F930E94312B0F900F9061
:102C00000F900F900F900F9098E09F8779C1AFEFD2
:102C1000B9E6E8E1A150B040E040E1F700C00000B3
:102C20006FC1FAE2BF126CC163C180ED8B0D8A30B7
:102C300008F04FC02E8538893217F0F431110CC0DE
:102C400049E3B41209C08DE289838DE290E00E94CD
:102C5000532B62E06E870CC0E1E0F0E0EC0FFD1F4B
:102C60007889E70FF11DB0828B2D90E00E94532BE5
:102C700088898F5F888B2DC0A8898A2F90E0E1E03A
:102C8000F0E0EC0FFD1FE80FF91FB082E2E0F0E08A
:102C9000EC0FFD1FE80FF91F10828B2D90E00E94B2
:102CA000532BCE0101960E944A2AE091A802F0918E
:102CB000A90280839F938F938FE691E09F938F93D8
:102CC0000E94312B0F900F900F900F90188AB8E050
:102CD000BF87EAE2BE1214C10EC18091A402811125
:102CE00005C00E94561E81E08093A40282E00E94EB
:102CF00031210E94692180910F011F928F93D10190
:102D00008C911F928F93F20180811F928F938FE598
:102D100091E09F938F930E94312B81E00E9431219B
:102D20000FB6F894DEBF0FBECDBFEAC08091A402FB
:102D3000811106C00E94561E81E08093A40212C039
:102D40003F85323009F446C028F4332359F031303E
:102D500029F1D6C04F85433009F45AC0443009F4F4
:102D6000ACC0CEC0A8E5B4E0BF93AF93AAE5B1E094
:102D7000BF93AF930E94312B5092A9024092A802B8
:102D80000F900F900F900F90F1E0F98B188A23E0CD
:102D90002F8737E13C8B41E04E87B2C08DE594E050
:102DA0009F938F9385E591E09F938F930E94312BA2
:102DB0003092A9022092A8020F900F900F900F90CE
:102DC00062E0698B188A73E07F878CE38C8B91E0DB
:102DD0009E8796C0A1E5B4E0BF93AF93A0E5B1E0B4
:102DE000BF93AF930E94312B8FE091E09093A902A3
:102DF0008093A8020F900F900F900F90F4E0F98B42
:102E0000188A23E02F873CE33C8B41E04E8778C053
:102E100080ED8B0D8A3008F04CC06E85788976176E
:102E200078F4E1E0F0E0EC0FFD1FE70FF11DB08258
:102E30008B2D90E00E94532B98899F5F988B39C00F
:102E4000A8898A2F90E0E1E0F0E0EC0FFD1FE80F89
:102E5000F91FB082E2E0F0E0EC0FFD1FE80FF91F70
:102E600010828B2D90E00E94532BCE0101960E9480
:102E70004A2A99237CF0BC892B2F30E02817390788
:102E80004CF0E091A802F091A9028083E989EF87D4
:102E9000188A0FC082E00E946E218DE491E09F931A
:102EA0008F930E94312B82E00E946E210F900F9031
:102EB000188AFAE2BF1224C021C02AE2B21220C04E
:102EC00086E08093A5021092A4021AC00E94561EAA
:102ED0008091A7028093A6021092A7021092A502E9
:102EE0000C942E0E39893F870BC049894F8708C043
:102EF00069896F8705C079897F8702C089898F8733
:102F00000E94B91D8091A702833011F40C942E0EFB
:102F10000E94C50668018C2D801BD6019D916D0114
:102F200091110E943D0ACE14DF04A9F78091A702F7
:102F3000813089F480917C03833068F081E0809354
:102F4000A6021092A7021092A402F89410927C0399
:102F500078940E94561E80913803882389F08091CE
:102F6000A7028093A60281E08093A7021092A40298
:102F7000F89410927C031092380378940E94561EA5
:102F8000F101208130E0862D992787FD9095281743
:102F9000390739F00E942907D1016C9081E08093B4
:102FA000000180917B03803130F00E947C0BF8940B
:102FB00010927B037894F201208130E0872D9927CD
:102FC00087FD90952817390711F40C942C0E0E9458
:102FD0005F0BD2017C90B4E0BE870C942E0E9091D2
:102FE0001F038091370381110C943B0E0C944B0E00
:102FF0001F920F920FB60F9211242F938F939F93CE
:10300000EF93FF938091C0002091C6008871E091FA
:10301000DC02EF5FEF719091DB02E91739F0E0938A
:10302000DC02F0E0E152FD4F208301C082E080939A
:10303000DA02FF91EF919F918F912F910F900FBE28
:103040000F901F9018951F920F920FB60F92112498
:103050008F939F93EF93FF939091DE028091DD0217
:10306000981769F0E091DD02EF5FEF71E093DD0208
:10307000F0E0E150FD4F80818093C60005C0E1EC97
:10308000F0E080818F7D8083FF91EF919F918F9100
:103090000F900FBE0F901F9018951092DE021092A5
:1030A000DD021092DC021092DB02992324F422E06C
:1030B0002093C0009F779093C5008093C40088E957
:1030C0008093C10086E08093C20008959091DC0255
:1030D0008091DB02981791F0E091DB02EF5FEF71D6
:1030E000E093DB02F0E0E152FD4F20818091DA02B3
:1030F00090E0982F8827820F911D089580E091E03D
:1031000008952091DE022F5F2F719091DD02291723
:10311000E1F3E22FF0E0E150FD4F80832093DE02E7
:10312000E1ECF0E08081806280830895CF93DF93AB
:10313000EC018881882331F021960E9481188991C1
:103140008111FBCFDF91CF910895CF93DF93EC01F5
:103150002196FC018491882339F00E948118FE0198
:10316000849121968111F9CFDF91CF9108958091BB
:10317000DC022091DB0290E04F96821B91096FE107
:1031800070E00E94E12808958091DB028093DC02C8
:103190000895CF93DF93CDB7DEB72A970FB6F89493
:1031A000DEBF0FBECDBF4AE0BE016F5F7F4F0E9402
:1031B000F02A0E9496182A960FB6F894DEBF0FBE2A
:1031C000CDBFDF91CF910895F894A89584B7877FFC
:1031D00084BFE0E6F0E0808188618083108278948B
:1031E00008951F920F920FB60F921124F894A8958C
:1031F00078940F900FBE0F901F901895F89484B795
:10320000877F84BFE0E6F0E088E1808381E6808309
:103210007894089520E430E05FEF4FEF08C0019705
:103220000097E9F7215031092115310519F0852F53
:10323000942FF5CFE0E7F0E08081887F8083E6EB94
:10324000F0E08081806280831092B20085E08093FC
:10325000B10080818F71E9F7E0E7F0E08081816063
:1032600080837894089540911401509115019A013A
:103270003695279536952795ABE7B4E10E94FB2854
:103280009695879564E6689F9001699F300D11249B
:103290004217530791F49A01329522952F702327F4
:1032A0003F702327AEE3BAE00E94FB28942F20E76B
:1032B000829F900D1124892F0895842F8370089583
:1032C0001F920F920FB60F9211242F933F934F939B
:1032D0005F936F937F938F939F93AF93BF93EF937E
:1032E000FF9380910F018F5F8C3319F080930F0152
:1032F00073C010920F0180917C038F5F80937C03D9
:1033000080917B038F5F80937B03809110018F5F9F
:103310008C3319F08093100158C0109210018091E5
:1033200011018F5F883119F0809311014EC0109206
:103330001101E2E1F1E080818F5F8083803249F406
:10334000E3E1F1E080818F5F808381E0809312016F
:103350002EC08F3179F480911301982F9D7F943086
:1033600011F0993021F58F5F8093130181E08093F4
:1033700012011DC08E3159F4809113018230B9F4CD
:1033800083E08093130181E08093120110C08D319E
:1033900071F480911301823051F40E943319882313
:1033A000A1F083E08093130181E08093120180916A
:1033B00013018D3051F481E080931301E4E1F1E0D9
:1033C0008081918101969183808380911F0388235E
:1033D00019F08F5F80931F03FF91EF91BF91AF9121
:1033E0009F918F917F916F915F914F913F912F911D
:1033F0000F900FBE0F901F90189510928803109297
:103400008603109285030895F894E0918F03F0915C
:103410009003908180918B03809589238083789499
:103420008CE703C0815009F449C095E09A95F1F703
:103430000000E0918C03F0918D03208190918B032B
:10344000922381F3F894E0918903F0918A039081AB
:1034500080918B03809589238083E0918F03F09185
:103460009003908180918B03892B80837894EFEB7C
:10347000F3E03197F1F700C00000F894E0918F037A
:10348000F0919003908180918B03809589238083B4
:10349000FAEBFA95F1F700C0E0918C03F0918D03FF
:1034A000908180918B03982381E009F080E07894EB
:1034B000E3E3F3E03197F1F700C000000895F894DA
:1034C000E0918903F0918A03208190918B0390957C
:1034D00092239083E0918F03F0919003208190914B
:1034E0008B03922B908380FF13C08AE18A95F1F7BA
:1034F00000C0E0918903F0918A03908180918B0351
:10350000892B8083789482E98A95F1F700C0089529
:103510008DEA8A95F1F70000E0918903F0918A0322
:10352000908180918B03892B808378948DE08A959C
:10353000F1F700000895EF92FF920F931F93CF933E
:10354000DF93F82EC8E0D0E011E001E0E12C802FFD
:10355000912F9F2109F48E2D0E945F1A110F219740
:103560002097A9F7DF91CF911F910F91FF90EF90D6
:103570000895F894E0918903F0918A0390818091F5
:103580008B03809589238083E0918F03F0919003D2
:10359000908180918B03892B808385E08A95F1F758
:1035A0000000E0918F03F0919003908180918B0354
:1035B0008095892380838AE18A95F1F700C0E091A4
:1035C0008C03F0918D03208190918B0378948DE88A
:1035D0008A95F1F70000292381E0921380E0089595
:1035E0000F931F93CF93DF938C0185E50E949B1A65
:1035F000E801085F1F4F89910E949B1AC017D107ED
:10360000D1F7DF91CF911F910F910895E09187033A
:103610008E27E82FF0E0EB5DFE4F808180938703DB
:103620000895DF92EF92FF920F931F93CF93DF9352
:10363000109287038091860381116EC00E94041A44
:10364000811107C01092880310928603109285039F
:1036500072C080EF0E949B1AEE24E394C0E0F12C2C
:10366000D1E011E0D12C0E94B91A082F0E94B91A9A
:10367000013019F48130F1F441C0081324C0809165
:103680008803D81750F4EC2FF0E0E358FC4F80810A
:103690008E21012F29F40D2D03C0012FD8130D2DDC
:1036A000011106C0D93008F03FC0D09385033CC05B
:1036B000013049F4EC2FF0E0E358FC4F80818E2973
:1036C0008083012F09C0EC2FF0E0E358FC4F90817C
:1036D0008E2D809589238083802F0E945F1ADF5F63
:1036E000EE0C49F4EC2FF0E0E358FC4F80810E948F
:1036F000061BCF5FE12EC83008F4B5CFD13460F09F
:1037000080918703811108C0F0928803F1100EC0E8
:1037100081E0809386030AC010928803109286038A
:103720001092850380E007C0FD2ECDCF80917D03F0
:10373000882391F381E0DF91CF911F910F91FF904A
:10374000EF90DF90089510928803109286031092F4
:1037500085030E94111B08950E94111B0895FF927A
:103760000F931F93CF93DF93CDB7DEB728970FB694
:10377000F894DEBF0FBECDBF85E893E0DE01119661
:10378000EDE7F3E021912D93E817F907D9F7F090D1
:103790008803009186031091850380E48093880359
:1037A000109286030E94111B882399F099818091C1
:1037B0007D03981310C0FE013296AEE7B3E0CE0150
:1037C000099631912D91321308C0E817F907C9F70E
:1037D00006C080E005C080E003C080E001C081E059
:1037E0009E01275F3F4FADE7B3E0FE013196919117
:1037F0009D93E217F307D9F7F092880300938603AD
:103800001093850328960FB6F894DEBF0FBECDBF88
:10381000DF91CF911F910F91FF90089550939003E6
:1038200040938F0370938A036093890390938D0371
:1038300080938C0381E0022E01C0880F0A94EAF77E
:1038400080938B0320938E030895E0918C03F09175
:103850008D03908180918B0389230895E0918903E2
:10386000F0918A03908180918B03892B8083E09172
:103870008F03F0919003908180918B03892B80833B
:103880000895CF93DF93C82FDFB7F894E0918903B1
:10389000F0918A03908180918B03809589238083A6
:1038A000E0918F03F0919003908180918B03892B9D
:1038B000808385E08A95F1F70000CC2399F0E091B0
:1038C0008F03F0919003908180918B0380958923E1
:1038D0008083E0918903F0918A03908180918B032A
:1038E000892B808380E28A95F1F7E0918C03F09137
:1038F0008D03908180918B03892309F4C0E085E7D3
:103900008A95F1F70000E0918903F0918A03908194
:1039100080918B03892B8083E0918F03F09190033A
:10392000208190918B0390959223908361110E9446
:103930002E1CDFBF8AE18A95F1F700C08C2FDF9142
:10394000CF910895E0918F03F09190039081809141
:103950008B03809589238083089560E081700E94A5
:10396000411C0895CF93DF93C82FD8E08C2F81702E
:103970000E94AD1CC6958111C068D150B9F78C2F3B
:10398000DF91CF910895CF93DF93C82FD8E0D13046
:1039900031F060E08C2F81700E94411C05C061E015
:1039A0008C2F81700E94411CC6958111C068D15036
:1039B00071F78C2FDF91CF910895EF92FF920F93C3
:1039C0001F93CF93DF93E82EEB01F42E0E94041A8D
:1039D000209769F085E50E94B21C8E01085F1F4F99
:1039E00089910E94B21CC017D107D1F703C08CEC9B
:1039F0000E94B21CFF2021F08E2D0E94C31C03C028
:103A00008E2D0E94B21CDF91CF911F910F91FF90DC
:103A1000EF9008958FEF0E94B21C089540E00E943D
:103A2000DD1C089541E00E94DD1C0895882311F0FB
:103A30002B9A01C02B988AE68A95F1F700C02D9A3F
:103A400085E38A95F1F700002D988AE68A95F1F7CB
:103A500000C008950F931F93CF93DF93082F862FF5
:103A60002A980E94161DC8E0D0E010E8812F80231C
:103A70000E94161D169521972097C1F72A9ADF916B
:103A8000CF911F910F91089560E00E942A1D089523
:103A900061E00E942A1D0895CF93DF9380E40E9485
:103AA000441D80EB0E94441D80E10E94441D80E083
:103AB0000E94441DC0E6D3E080E00E94481D21978B
:103AC0002097D1F7DF91CF91089584B18C6384B9A9
:103AD0002A988FE097E20197F1F700C000002C9838
:103AE0008FE19EE40197F1F700C000002C9A80E27C
:103AF0000E94441D80E90E94441D84EA0E94441DE6
:103B00008FE20E94441D80E40E94441D80EB0E94CD
:103B1000441D80E10E94441D80E00E94441D88EC09
:103B20000E94441D81EA0E94441D8CEA0E94441DAB
:103B300087E00E94441D8FEA0E94441D0E944C1D94
:103B400087EA0E94441D9FEF24E38CE091502040BF
:103B50008040E1F700C0000086EA0E94441D9FEF0C
:103B600029E688E1915020408040E1F700C0000044
:103B700008959F92AF92BF92CF92DF92EF92FF9201
:103B80000F931F93CF93DF93A12CB12C912C80E046
:103B900090E06C0128E0C20ED11C20912003332755
:103BA00027FD30952C153D05C4F5209117013327CD
:103BB00027FD309528173907D4F1892D806B0E9495
:103BC000441D10912103C12FDD27C7FDD095E09042
:103BD0001801FF24E7FCF094CE0195958795959503
:103BE0008795959587959595879580610E94441D49
:103BF000812F8F700E94441DEC16FD0674F08E011B
:103C00000A0D1B1D0F561C4FF80181918F010E9458
:103C1000481D2196EC16FD06BCF79394F0E6AF0E16
:103C2000B11C28E4C216D10411F0C601B2CF8FE551
:103C3000809321031092180180E480932003109256
:103C40001701DF91CF911F910F91FF90EF90DF90BF
:103C5000CF90BF90AF909F900895E0912103FF27F0
:103C6000E7FDF0958E179F0714F480932103809150
:103C70001801992787FD90958417950714F44093B0
:103C8000180180912003992787FD9095681779077F
:103C900014F46093200380911701992787FD909574
:103CA0008217930714F4209317010895E1E9F3E0D4
:103CB00081EF96E01192E817F907E1F720E430E090
:103CC0004FE550E060E070E080E090E00E942D1E43
:103CD00010922703109226031092250310922403BA
:103CE000109223031092220308958036910508F064
:103CF00064C06134710508F060C0452B69F19B0117
:103D0000772314F4295F3F4F3595279535952795EF
:103D10003595279540E6429FF001439FF00D112411
:103D2000E80FF91FEF56FC4F9B01277030783323C3
:103D300034F421503109286F3F6F2F5F3F4F41E02E
:103D400050E0DA0102C0AA0FBB1F2A95E2F79D01DD
:103D50003081232B20832DC09B01772314F4295F0E
:103D60003F4F35952795359527953595279540E60D
:103D7000429FF001439FF00D1124E80FF91FEF5609
:103D8000FC4F9B0127703078332334F421503109E4
:103D9000286F3F6F2F5F3F4F41E050E0DA0102C0D4
:103DA000AA0FBB1F2A95E2F79D012095308123239E
:103DB00020839B01AC010E942D1E0895282F30E026
:103DC0003093250320932403262F30E030932303E0
:103DD0002093220390911601292F220F290F220FE1
:103DE000289F802D112480932703990F990F990FF5
:103DF000969F602D11246093260308952F923F9281
:103E00004F925F926F927F928F929F92AF92BF92EA
:103E1000CF92DF92EF92FF920F931F93CF93DF9396
:103E2000EC017B016A01C901861B970BAC0122F4EE
:103E300044275527481B590BB6016C1B7D0BCB0142
:103E4000992324F488279927861B970B71E060E05B
:103E5000841795070CF070E0A72EB62EA114B104BC
:103E600051F09C2D8D2D6901292F382F9C2F8D2FDE
:103E7000E701E92EF82ECC16DD0654F49E2D8F2D89
:103E80007901292F382F9C2F8D2FE601C92ED82E8E
:103E900016012C1A3D0AC9018E199F093C0122F412
:103EA00066247724681A790A410133201CF48FEFC5
:103EB000881A980A95948794E216F30624F4442409
:103EC0004394512C03C044244A94542CCC16DD0650
:103ED000CCF0A114B10431F0A801BE01C7010E94C9
:103EE000751E05C0A801B701CE010E94751E861877
:103EF000970822F4E40CF51C820C931C2196CC1636
:103F0000DD063CF7DF91CF911F910F91FF90EF906D
:103F1000DF90CF90BF90AF909F908F907F906F90E9
:103F20005F904F903F902F9008950F931F938901BA
:103F30009B01240F351F21503109AC010E94FE1E48
:103F40001F910F910895AF92BF92CF92DF92EF929F
:103F5000FF920F931F93CF93DF93EC015B016901F5
:103F60007C01E40EF51E8E159F0554F49801A60100
:103F7000B501CE010E94951F2196CE15DF05B4F341
:103F8000DF91CF911F910F91FF90EF90DF90CF9035
:103F9000BF90AF9008952F923F924F925F926F9291
:103FA0007F928F929F92AF92BF92CF92DF92EF92C9
:103FB000FF920F931F93CF93DF93CDB7DEB72C976C
:103FC0000FB6F894DEBF0FBECDBF19018036910544
:103FD0000CF09EC0613471050CF09AC0AE2CB12C6F
:103FE0009501220F331F220F331F2A0D3B1D280F6F
:103FF000391F2150310933230CF48AC09501220F57
:10400000331F220F331F220F331F260F371F21505C
:10401000310933230CF47CC050E09A01220F331F86
:10402000220F331F420F531F45019B838A839D83B9
:104030008C831E824D505B4F9A01281B390B3A87A7
:1040400029876F83788728011E2D3E81353009F43A
:1040500051C0E985FA858A819B81E80FF91F049197
:104060004AC09C8590FF13C0AB85A13039F4A101F3
:10407000B6018A819B810E94751E1EC08101950137
:10408000A501B7018981962D0E94A31F15C0421476
:10409000530491F0BB85B13039F4A201B6018A8195
:1040A0009B810E94751E08C082019501A501B70180
:1040B0008981962D0E94A31FEC85E695EC877A9462
:1040C000E80CF91CFFEFCF1ADF0A7110CACF1B856D
:1040D0002E812F5F2E838C819D81880D991D9D835C
:1040E0008C83AA81BB811196BB83AA83263009F0F9
:1040F000ACCF0EC000E0BC81B9836D80EF80F88446
:10410000CE2CDF2C6894772473F80C871B87A9CFFB
:104110002C960FB6F894DEBF0FBECDBFDF91CF91C6
:104120001F910F91FF90EF90DF90CF90BF90AF90D5
:104130009F908F907F906F905F904F903F902F90C7
:104140000895EF92FF920F931F93CF93DF93C09147
:10415000160160912603772767FD709590912703DC
:10416000EC2E00E010E02FEF30E0482F892F992748
:1041700087FD90950E94CB1FEC2EF12CE701CC0F10
:10418000DD1FCE0DDF1DCC0FDD1FEE0CFF1CEE0C76
:10419000FF1CEE0CFF1C80912403909125030196D7
:1041A0008031910528F4909325038093240313C054
:1041B00010922503109224038091220390912303EF
:1041C0008730910530F40196909323038093220366
:1041D00002C00E94561E809124038C9FC02D112482
:1041E000C0932703809122038E9DE02C1124E0923E
:1041F000260380E0DF91CF911F910F91FF90EF9008
:1042000008951F93CF93DF93EC018881882351F0A9
:1042100010E00E94A1201F5FFE01E10FF11D8081CF
:104220008111F7CFDF91CF911F91089540E150E0C8
:10423000BC0183E493E00E94682A1092530383E454
:1042400093E00E94012108950F931F93480F591F77
:104250004150510989019B010E94FE1E1F910F913F
:104260000895811101C081E0809316010895089599
:10427000CF93DF93CDB7DEB761970FB6F894DEBF6B
:104280000FBECDBF4AE0BE016F5F7F4F0E94F02A94
:10429000CE0101960E94012161960FB6F894DEBF0F
:1042A0000FBECDBFDF91CF91089560912203709131
:1042B00023036730710550F46F5F7F4F70932303C2
:1042C0006093220380E00E94DE1E08950E94561E25
:1042D000089560E080E00E94DE1E089590E0209145
:1042E0002403309125032817390738F0281B390B90
:1042F000309325032093240315C04091220350914D
:1043000023034115510531F04150510950932303C6
:1043100040932203205F3F4F281B390B3093250326
:104320002093240360912203809124030E94DE1EC7
:1043300008958A3019F40E94552104C0803210F08B
:104340000E94A12080E090E008950F93FF92F090EA
:104350005F0000911A01F894002B61F4009179003C
:104360000093190101E000931A01F89411241092AE
:104370007C03789400E000937A007894F0925F00D8
:10438000FF900F9118950F931F9310915F00F89471
:1043900007EF00937A00086000937A0078941093F6
:1043A0005F001F910F9118950F9303E000937F001A
:1043B00003E1009350000860009350000F910895AE
:1043C0000F931F938F70182F16506CF410E0082F66
:1043D000002B21F0110F0A950C94E82100917E002A
:1043E000012B00937E0000E6082B00937C0000E088
:1043F00000937B000FE600937A001F910F910895C0
:104400000F921F92FF93EF93882710901A011128A3
:1044100099F010901901F4E4EEE4C895101420F01E
:10442000039411F03296F9CF3196C895802D11245E
:10443000F89410921A017894EF91FF911F900F90C9
:1044400008951124F89410921A01789408950700A1
:1044500012311C322A3340345B3579369C37B938F7
:10446000CF39E12AED30FF230C94A5210C94C32110
:1044700090931C0180931B0170931E0160931D019A
:104480000895CF93DF93EC018EEE99E00E94A5187A
:10449000CE010E94C91889E492E00E94A5180E94EA
:1044A000C5062FEF84E39CE0215080409040E1F767
:1044B00000C0000081E090E0DF91CF9108959F92CD
:1044C000AF92BF92CF92DF92EF92FF920F931F9322
:1044D000CF93DF93EC015B01942EE22EFC0101905F
:1044E0000020E9F7CF0101978C1B9D0B0E941E292C
:1044F0006C01BE010E94892AB801C6010E94772A78
:10450000F12C1E141F045CF4C1E0D0E0B80180E07F
:1045100090E00E94772A2196EC16FD06BCF70097E2
:10452000B1F0FC0101900020E9F73197E81BF90B8D
:10453000292D30E0E217F30750F4BC01C5010E94B9
:10454000892AC6010E94B62980E090E007C0F501E3
:104550001082C6010E94B62981E090E0DF91CF91E0
:104560001F910F91FF90EF90DF90CF90BF90AF9091
:104570009F900895DF92EF92FF920F931F93CF9336
:10458000DF938C01EB01F42EFB0101900020E9F791
:104590003197CF01861B970B0E941E29D82EE92E3A
:1045A000CE010E945A2B2881222351F0FE01319620
:1045B000AD2DBE2D2F112D9321912111FBCF02C0C6
:1045C000AD2DBE2D1C926D2D7E2DC8010E94892A15
:1045D0008D2D9E2D0E94B629DF91CF911F910F91B5
:1045E000FF90EF90DF9008950E9496188AE00E9455
:1045F00081180E94C5062FEF89E698E1215080407E
:104600009040E1F700C000000E94C50681E090E004
:1046100008958BE492E00E94F4220895E0911D0138
:10462000F0911E01099581159140C1F70895CF922F
:10463000DF92EF92FF920F931F93CF93DF936C0162
:104640007B01DC011C928C01C0E0D0E0E0911D01F7
:10465000F0911E0109958115B1E09B07B1F09C0115
:10466000205231092036310558F4CE15DF0574F794
:10467000F80181932196D80111961C928F01E6CF03
:104680008D30910511F00A9709F781E090E0F6016D
:104690002081211102C080E090E0DF91CF911F9135
:1046A0000F91FF90EF90DF90CF900895CF92DF921F
:1046B000EF92FF920F931F93CF93DF93CDB7DEB7A7
:1046C000C059D1400FB6F894DEBF0FBECDBF8C01EC
:1046D0006B010E940E2386E09AE00E94A518C80193
:1046E0000E94C91884E09AE00E94A5180E94C5069D
:1046F0002FEF89E698E1215080409040E1F700C01B
:1047000000000E94C50608EC10E068EC70E0CE01E5
:1047100001960E9417237C018130910509F064C045
:1047200065E572E0CE0101960E94AF2A892B09F45B
:104730005BC06BE572E0CE0101960E94AF2A892B27
:1047400031F081E0F601E353FF4F80830CC064E653
:1047500072E0CE0101960E94AF2A892B21F0F6016A
:10476000E353FF4F10820FE612E021E048ECBE0158
:1047700067537F4FCE0101960E945F2242E2BE0145
:1047800067537F4FCB010E94BA22BE0167537F4F10
:10479000C60180569F4F0E94892A23E048ECBE0143
:1047A00067537F4FCE0101960E945F2242E2BE0115
:1047B00067537F4FCB010E94BA22BE0167537F4FE0
:1047C000C6018C549F4F0E94892A68EC70E0CE018C
:1047D00001960E941723892BC1F3BE016F5F7F4FA3
:1047E000C6010E94892A08C001501109011511054E
:1047F00009F08BCFE12CF12CC701C057DE4F0FB66B
:10480000F894DEBF0FBECDBFDF91CF911F910F9106
:10481000FF90EF90DF90CF900895AF92BF92CF922C
:10482000DF92EF92FF920F931F93CF93DF93CDB759
:10483000DEB7CE55D1400FB6F894DEBF0FBECDBF68
:104840007C0180912803811108C0E9E2F3E001E0D6
:1048500010E08191882371F002C000E010E0B70100
:1048600090E00E945623F801E85DFC4F80811082A1
:1048700090E076C00F5F1F4F0F30110551F781E7B1
:1048800092E00E94F4220E94C5062FEF89E698E18B
:10489000215080409040E1F700C000000E94C50612
:1048A0000F2EF8E2CF2EF3E0DF2EF02D00E010E027
:1048B000AA24A394B12C6CE271E0CE0101960E946F
:1048C0001723019741F564E672E0CE0101960E943C
:1048D000AF2A892B01F10FE612E020E042E3BE018E
:1048E000635D7E4FCE0101960E945F2209E712E0D0
:1048F00021E042E3BE01635D7E4FCB010E945F2257
:10490000CE01835D9E4F0E944A2AF60181936F017A
:104910000A2D1B2DD0CF0F5F1F4F083C11055CF2F5
:1049200080912803811108C0E9E2F3E001E010E082
:104930008191882371F002C000E010E0B70190E09F
:104940000E945623F801E85DFC4F8081108290E0C0
:1049500007C00F5F1F4F0F30110551F780E090E047
:10496000C25ADE4F0FB6F894DEBF0FBECDBFDF9147
:10497000CF911F910F91FF90EF90DF90CF90BF905C
:10498000AF9008952F923F924F925F926F927F92D5
:104990008F929F92AF92BF92CF92DF92EF92FF924F
:1049A0000F931F93CF93DF93CDB7DEB7C659D109CD
:1049B0000FB6F894DEBF0FBECDBF3C011B012A012C
:1049C00055230CF4EEC0A12CB12C812C912C0E940B
:1049D0000E238AEF99E00E94A518C3010E94961841
:1049E00087EF99E00E94A518C1010E949618E091F6
:1049F0001B01F0911C018AE109950E94C5062FEF69
:104A000089E698E1215080409040E1F700C0000025
:104A10000E94C5062FEF89E698E121508040904022
:104A2000E1F700C000000E94C5062FEF89E698E17B
:104A3000215080409040E1F700C000000E94C50670
:104A400002E310E00E94C5062FEF80E792E02150BC
:104A500080409040E1F700C0000064E670E0CE01C5
:104A600001960E941723019731F56BE772E0CE01A2
:104A700001960E94AF2A892B09F096C061E872E086
:104A8000CE0101960E94AF2A892BA9F009E712E016
:104A900021E042E3BE016B597F4FCE0101960E9497
:104AA0005F22CE018B599F4F0E944A2A5C0141141C
:104AB000510431F47CC0015011090115110511F6A2
:104AC0001A141B040CF075C00F2EF8E2EF2EF12C17
:104AD000F02D0E94C5062FEF84E39CE0215080401A
:104AE0009040E1F700C0000064E670E0CE0101965E
:104AF0000E9417236C018130910509F043C067E8DB
:104B000072E0CE0101960E94AF2A892BD9F10FE6FF
:104B100012E021E042E3BE016B597F4FCE010196C6
:104B20000E945F22892B71F5CE018B599F4F0E9405
:104B30004A2A8A159B0531F528E042E3BE016B59EC
:104B40007F4FCE0101960E945F22892B39F4CE015E
:104B50008B599F4F0E944A2A892B81F10FE612E060
:104B600026E042E3BE016B597F4FCE0101960E94C1
:104B70005F22892B39F4CE018B599F4F0E944A2A1C
:104B8000892BE1F081E0E81AF108E114F10409F061
:104B9000A0CF9FEF891A990A481459040CF017CF37
:104BA0000BC0C12CD12C0AC0C12CD12C07C06C0168
:104BB00005C0C12CD12C02C0C12CD12CC601CA56B3
:104BC000DF4F0FB6F894DEBF0FBECDBFDF91CF91A0
:104BD0001F910F91FF90EF90DF90CF90BF90AF901B
:104BE0009F908F907F906F905F904F903F902F900D
:104BF0000895AF92BF92CF92DF92EF92FF920F9300
:104C00001F93CF93DF93CDB7DEB7C659D1090FB647
:104C1000F894DEBF0FBECDBF6C018FE892E00E941A
:104C2000F42208EC10E064E670E0CE0101960E94E8
:104C30001723019709F03FC068E972E0CE010196A1
:104C40000E94AF2A892BB9F16EE972E0CE0101967C
:104C50000E94AF2A7C010FE612E021E042E3BE0190
:104C60006B597F4F0E945F22892B61F5CE018B59D2
:104C70009F4F0E944A2A5C0122E042E3BE016B5929
:104C80007F4FC7010E945F22892BF9F4CE018B5917
:104C90009F4F0E944A2ABC010097D1F0F6019183F0
:104CA000808324E62A9DC0012B9D900D11240E9433
:104CB000E128CB0112C0015011090115110509F0BD
:104CC000B2CF09C08FEF9FEF08C08FEF9FEF05C0F5
:104CD0008FEF9FEF02C08FEF9FEFCA56DF4F0FB6E7
:104CE000F894DEBF0FBECDBFDF91CF911F910F9122
:104CF000FF90EF90DF90CF90BF90AF900895E8982D
:104D0000E9E6F0E080818C7F80835298E09AE89A0F
:104D100078940895E898E09A08951F920F920FB63C
:104D20000F9211248F9380913803833018F01092E2
:104D3000380303C08F5F809338038F910F900FBEAD
:104D40000F901F901895E998E9E6F0E08081877F41
:104D5000808380818460808353985B9AE19AE99A8A
:104D600078940895E998E19A08951F920F920FB6EA
:104D70000F9211248F934B9B0CC080913703843684
:104D800020F081E08093370308C08F5F8093370362
:104D900004C010921F03109237038F910F900FBE23
:104DA0000F901F90189561157105B1F0FC01680F07
:104DB000791F80E058E048E12191952F322F382764
:104DC00030FF0CC084278695806826959150B1F7F6
:104DD000E617F70789F7089580E008958695F5CFDF
:104DE000FB01218130E0322F22279081292B803155
:104DF00079F42E7FA901440F551F440F551F440F0E
:104E0000551F96812CE030E0291B3109240F351FF6
:104E100033232CF431952195310961E001C060E024
:104E2000883211F0823269F484818076803231F0E8
:104E3000803431F0811105C0287F03C02C7F01C070
:104E40002E7FC901929582958F7089279F7089273F
:104E5000AC01440F551F880F991F880F991F880FA9
:104E6000991F840F951F2F703327A9015695542F32
:104E7000442757954795322F2227330F240F351F8C
:104E8000611113C03E5F232F332726952695280FE7
:104E9000391FC9018A5D9D4F8930974018F080ED18
:104EA00097E00895822F932F0895232F3327269577
:104EB0002695820F931F22273327281B390BE9CF12
:104EC000EF92FF920F931F93CF93DF93E62EF72E6F
:104ED000042F5D982AE02A95F1F7BC018EEB0E9421
:104EE0000E1D002349F0CE2DDF2D10E00E940A1D7B
:104EF00089931F5F1013FACF69E070E08E2D9F2D0C
:104F00000E94D326882311F083E001C080E05D9ADF
:104F1000DF91CF911F910F91FF90EF900895559AD7
:104F20005D9A8FE496E40197F1F700C000005D9868
:104F30008AE08A95F1F70895CF93DF93EC015D98AD
:104F40008AE08A95F1F7F8940E94041ABE0184EB76
:104F50000E940E1D81E00E94AD1CC82F0E94041A01
:104F600078945D9A81E0C11101C080E0DF91CF911A
:104F700008951F93CF93DF93182FEB015D989AE06C
:104F80009A95F1F7F8940E94041A78940E94251CCF
:104F9000882391F0113041F0F894BE0184E40E941E
:104FA000121D789480E009C0F894BE0184E40E9448
:104FB0000E1D789480E001C082E05D9ADF91CF9170
:104FC0001F9108955D988AE08A95F1F781E00E942B
:104FD000AD1C5D9A91E0811190E0892F0895EF92C8
:104FE000FF920F931F93CF93DF93CDB7DEB7279731
:104FF0000FB6F894DEBF0FBECDBF8B01473008F46B
:1050000063C09C0129513C4F273F3A4208F05EC0E3
:10501000992334F4919581959109EE24E39401C08C
:10502000E12CF12C6AE070E00E94E12821E02F0DD4
:10503000E1E0F0E0EC0FFD1FEF0DF11DF7FCFA953C
:10504000805D8083862F972F1816190614F4F22E90
:10505000E9CF822FEE2059F09DE2FE01E20FF11D13
:1050600027FDFA959183882354F430E027C09BE212
:10507000FE01E20FF11D27FDFA959183F4CF90E038
:105080004EE202C0932F282F31E0390F8FEF820FAD
:10509000E1E0F0E0EC0FFD1FE20FF11D2081F801CF
:1050A000E90FF11D2083811107C0F801E30FF11D05
:1050B000408332E0390FE6CF882324F7F801E30F6D
:1050C000F11D108280E003C081E001C081E02796DD
:1050D0000FB6F894DEBF0FBECDBFDF91CF911F9109
:1050E0000F91FF90EF900895DF92EF92FF920F9350
:1050F0001F93CF93DF93CDB7DEB729970FB6F89400
:10510000DEBF0FBECDBF8C017B015D988AE08A9522
:10511000F1F70E94041A49E0BE016F5F7F4FC8019A
:105120000E946027D82E81110AC0BE016F5F7F4F99
:10513000F80180810E94F026F701918380835D9AB7
:105140008D2D29960FB6F894DEBF0FBECDBFDF912F
:10515000CF911F910F91FF90EF90DF900895EF9204
:10516000FF920F931F93CF93DF93CDB7DEB72997AD
:105170000FB6F894DEBF0FBECDBFE82E8B0149E01D
:10518000BE016F5F7F4F80E090E00E946027F82EA5
:10519000811109C0BE016F5F7F4F8E2D0E94F026E6
:1051A000F801918380838F2D29960FB6F894DEBF86
:1051B0000FBECDBFDF91CF911F910F91FF90EF9068
:1051C000089597FB072E16F4009407D077FD09D0B9
:1051D0000E940A2907FC05D03EF4909581959F4FC7
:1051E0000895709561957F4F0895EE0FFF1F05900C
:1051F000F491E02D0994A29FB001B39FC001A39F39
:10520000700D811D1124911DB29F700D811D1124FF
:10521000911D0895AA1BBB1B51E107C0AA1FBB1F0C
:10522000A617B70710F0A61BB70B881F991F5A9532
:10523000A9F780959095BC01CD010895CF93DF9398
:105240008230910510F482E090E0E091F306F09155
:10525000F40620E030E0A0E0B0E0309739F1408182
:10526000518148175907B8F04817590771F48281DE
:105270009381109729F013969C938E9312972CC0CC
:105280009093F4068093F30627C02115310531F081
:105290004217530718F0A901DB0101C0EF019A0181
:1052A000BD01DF010280F381E02DD7CF211531054B
:1052B000F9F0281B390B2430310580F48A819B8159
:1052C0006115710521F0FB019383828304C09093E3
:1052D000F4068093F306FE01329644C0FE01E20F0D
:1052E000F31F8193919322503109398328833AC067
:1052F0002091F1063091F206232B41F420912101F7
:10530000309122013093F2062093F10620911F0183
:10531000309120012115310541F42DB73EB7409160
:10532000230150912401241B350BE091F106F091EB
:10533000F206E217F307A0F42E1B3F0B28173907DC
:1053400078F0AC014E5F5F4F2417350748F04E0FE1
:105350005F1F5093F2064093F1068193919302C030
:10536000E0E0F0E0CF01DF91CF910895CF93DF939C
:10537000009709F487C0FC01329713821282C09112
:10538000F306D091F406209781F420813181280F13
:10539000391F8091F1069091F2068217930779F5F3
:1053A000F093F206E093F1066DC0DE0120E030E0FC
:1053B000AE17BF0750F412964D915C9113979D0163
:1053C0004115510509F1DA01F3CFB383A28340817E
:1053D0005181840F951F8A179B0771F48D919C91C1
:1053E0001197840F951F02969183808312968D9159
:1053F0009C911397938382832115310529F4F093AF
:10540000F406E093F3063EC0D9011396FC93EE93A5
:1054100012974D915D91A40FB51FEA17FB0779F420
:1054200080819181840F951F0296D90111969C93DA
:105430008E938281938113969C938E931297E0E0D2
:10544000F0E08A819B81009719F0FE01EC01F9CF11
:10545000CE01029628813981820F931F2091F10697
:105460003091F2062817390769F4309729F4109221
:10547000F4061092F30602C013821282D093F20651
:10548000C093F106DF91CF91089581E090E0F89408
:105490000C94BA2EFC0188279927E8942191203298
:1054A000E9F3293010F02E30C8F32B3241F02D32C1
:1054B00039F4689404C00E94FB2A820F911D219147
:1054C00020532A30C0F31EF4909581959F4F089584
:1054D000FB01DC014150504048F005900D92002046
:1054E000C9F701C01D9241505040E0F7089549E3CB
:1054F00053E00E94C92A0895FB01DC0104C08D918C
:105500000190801921F441505040C8F7881B990B35
:105510000895FB01DC0101900D920020E1F7089550
:10552000FB01DC010D900020E9F71197415050403C
:1055300028F0019000200D92C9F708951C9208955B
:10554000FB01DC014150504048F001900D920020D9
:10555000C9F701C01D9241505040E0F70895FB018A
:1055600051915523A9F0BF01DC014D91451741111F
:10557000E1F759F4CD010190002049F04D9140151B
:105580004111C9F3FB014111EFCF81E090E0019798
:105590000895FA01A191B081009719F41097E1F0F4
:1055A000CD01DC01CD010D90002011F4C00113C02C
:1055B000FB012191222319F02015D9F7F3CFFB012C
:1055C0002191201519F41E92119606C02223C1F7CD
:1055D0000D900020A1F7D001FA01A193B0830895A6
:1055E000BB274A3031F4992322F4BDE2909581958E
:1055F0009F4F0C94042B7AE0979F902D879F802DCE
:10560000910D11240895BB27FB015527AA27880F68
:10561000991FAA1FA41710F0A41B83955051B9F726
:10562000A05DAA3308F0A95DA193009779F7B111A5
:10563000B1931192CB010C94E32DA0E0B0E0E3E232
:10564000FBE20C94932EFE01359661917191AF01AE
:105650008091F7069091F8060E94A92BE2E00C9445
:10566000AF2EA0E0B0E0E7E3FBE20C94912EFE0148
:1056700037966191719107EF16E0D8018D919C9159
:10568000DC0113962C911397286013962C93AF018D
:105690000E94A92BD801ED91FC912381277F2383C0
:1056A000E4E00C94AD2E6091F7067091F8060E942C
:1056B000F32D08950F931F93CF93DF93E091F70697
:1056C000F091F806238121FF1BC0EC0100E010E0FF
:1056D00089916091F7067091F806DB011896ED91BB
:1056E000FC911997882331F00995892B89F30FEFE5
:1056F0001FEFEECF8AE00995892B11F4C80102C093
:105700008FEF9FEFDF91CF911F910F910895AEE042
:10571000B0E0EDE8FBE20C94912E0D891E898EE03D
:105720008C831A8309838FEF9FE79E838D83AE015D
:10573000475E5F4F6F89788DCE0101960E94A92B3D
:10574000EF81F885E00FF11F10822E96E4E00C94B3
:10575000AD2EACE0B0E0EFEAFBE20C94832E7C01CE
:105760006B018A01FC0117821682838181FFBDC112
:10577000CE0101964C01F7019381F60193FD8591CD
:1057800093FF81916F01882309F4ABC1853239F40D
:1057900093FD859193FF81916F01853229F4B701C3
:1057A00090E00E94F32DE7CF512C312C20E02032E5
:1057B000A0F48B3269F030F4803259F0833269F40E
:1057C00020612CC08D3239F0803339F4216026C03D
:1057D0002260246023C0286021C027FD27C030ED4F
:1057E000380F3A3078F426FF06C0FAE05F9E300D9D
:1057F0001124532E13C08AE0389E300D1124332E0D
:1058000020620CC08E3221F426FD6BC1206406C0DC
:105810008C3611F4206802C0883641F4F60193FDFD
:10582000859193FF81916F018111C1CF982F9F7D49
:105830009554933028F40C5F1F4FFFE3F9830DC09C
:10584000833631F0833771F0833509F05BC022C0B5
:10585000F801808189830E5F1F4F44244394512CAB
:10586000540115C03801F2E06F0E711CF801A080E0
:10587000B18026FF03C0652D70E002C06FEF7FEF9F
:10588000C5012C870E94D82D2C0183012C852F77F0
:10589000222E17C03801F2E06F0E711CF801A080B3
:1058A000B18026FF03C0652D70E002C06FEF7FEF6F
:1058B000C5012C870E94CD2D2C012C852068222E1D
:1058C000830123FC1BC0832D90E048165906B0F4D9
:1058D000B70180E290E00E94F32D3A94F4CFF501F5
:1058E00027FC859127FE81915F01B70190E00E941E
:1058F000F32D31103A94F1E04F1A5108411451043C
:1059000071F7E5C0843611F0893639F5F80127FFC3
:1059100007C060817181828193810C5F1F4F08C035
:1059200060817181882777FD8095982F0E5F1F4FCA
:105930002F76B22E97FF09C090958095709561954E
:105940007F4F8F4F9F4F2068B22E2AE030E0A40196
:105950000E94252EA82EA81844C0853729F42F7E32
:10596000B22E2AE030E025C0F22FF97FBF2E8F360D
:10597000C1F018F4883579F0B4C0803719F0883751
:1059800021F0AFC02F2F2061B22EB4FE0DC08B2DA1
:105990008460B82E09C024FF0AC09F2F9660B92EDC
:1059A00006C028E030E005C020E130E002C020E180
:1059B00032E0F801B7FE07C0608171818281938176
:1059C0000C5F1F4F06C06081718180E090E00E5F28
:1059D0001F4FA4010E94252EA82EA818FB2DFF778B
:1059E000BF2EB6FE0BC02B2D2E7FA51450F4B4FE97
:1059F0000AC0B2FC08C02B2D2E7E05C07A2C2B2DA0
:105A000003C07A2C01C0752C24FF0DC0FE01EA0DE5
:105A1000F11D8081803311F4297E09C022FF06C068
:105A20007394739404C0822F867809F0739423FDD5
:105A300013C020FF06C05A2C731418F4530C5718C7
:105A4000732C731468F4B70180E290E02C870E94F5
:105A5000F32D73942C85F5CF731410F4371801C00F
:105A6000312C24FF12C0B70180E390E02C870E9404
:105A7000F32D2C8522FF17C021FF03C088E590E09D
:105A800002C088E790E0B7010CC0822F867859F0F9
:105A900021FD02C080E201C08BE227FD8DE2B7014B
:105AA00090E00E94F32DA51438F4B70180E390E054
:105AB0000E94F32D5A94F7CFAA94F401EA0DF11D38
:105AC0008081B70190E00E94F32DA110F5CF332023
:105AD00009F451CEB70180E290E00E94F32D3A9490
