:100000000C94F3040C949B250C94C3250C941005BC
:100010000C9410050C9410050C9493180C94100576
:100020000C9410050C9402190C9410050C941005F6
:100030000C9410050C9410050C9410050C941005EC
:100040000C9410050C9410050C949A170C94C51779
:100050000C9410050C9442210C9410050C9444212E
:100060000C9410050C941005F50E080F080F080FDE
:10007000080F080F080F080F080F080F080F080FC8
:10008000080F080FA80EB00EB80EC00EC80ED50E81
:10009000DD0EE50EED0E150F4610C5112F1264137F
:1000A000401617169012B20F09177813B313EE13F8
:1000B000291464149F14DA141515BE15C2155015B1
:1000C0006C1520617420253032643A253032643A50
:1000D000253032640020617420253032643A2530A6
:1000E00032643A253032640025643A20000A2569DA
:1000F0002D2553000A25692D2553000A25692D2534
:1001000053000A25692D2553000A25532025530045
:100110000A2025533A202569000A2025533A202534
:1001200069000A2025533A202569000A2025533A00
:10013000202569002020253032643A253032643A87
:10014000253032640A002553002020000A25533A46
:10015000000A25533A000A25533A000A2530326432
:100160003A253032643A25303264000A56616C75A3
:10017000652069733A2569000A25534420255321D7
:100180000025532025533F0A002025533A002025FF
:100190005325530A0025532025530A002025533A9E
:1001A0000020255325530A0025532025530A0020FB
:1001B00025533A0020255325530A00255320255363
:1001C0000A002025533A0020255325530A002553C1
:1001D0002025530A002025533A0020255325530A91
:1001E0000025532025530A002025533A002025538B
:1001F00025530A0025532025530A002025533A0091
:1002000020255325530A0025532025530A00202575
:10021000533A0020255325530A0025532025530A1D
:10022000000A255325533A2569000A255325533AD8
:100230002569000A255325533A2569000A255325C7
:10024000533A2569000A255325533A2569000A25A2
:100250005325533A2569000A255325533A25690049
:10026000255325533A2569000A2020202553000AEA
:1002700025532569202D202553000A255325692063
:100280002D202553000A25532569202D20255300B4
:1002900025532569202D202553002020202025537B
:1002A00000255300202020000A2025533A25303213
:1002B00058002025532025533A0A00255320255362
:1002C0000A002025532025533A0A002553202553A0
:1002D0000A002025532025533A0A00255320255390
:1002E0000A002025532025533A0A00255320255380
:1002F0000A000A25534420255321000A2573000AC9
:10030000255325533F0025532025533A0A002569DC
:100310002E25532025530025692E25532025530AC9
:100320000025692E25532025530A0025692E2553C3
:100330000A0025692E25532025532D25530A002513
:10034000692E25532025530A0025692E2553202583
:1003500053730A0025692E25532025530A000A20CD
:1003600020202553000A202020255373000A202036
:1003700020202553000A2020202553000A20202079
:1003800025533A25303169000A20202020255300CA
:100390002553002553004300200030322D4E6F744A
:1003A00052656164790030312D506F776572204756
:1003B0006F6E65210030302D526567756C61746F0A
:1003C000722053746172746564210050484F4E4529
:1003D000002D455854002D504152002D44533138C2
:1003E0003232002D44533138423230002D445331E3
:1003F00038533230002053656E736F7273666F75B9
:100400006E6400542D4544474553004D49535349AC
:100410004E4700414253454E43450053656E736F4E
:100420007200414C41524D005345434F4E440048E9
:100430004F5552004D494E5554450054494D4500C5
:100440005341564500544F20454550524F4D0044AE
:100450004946460054454D50004D4158004D494EC7
:100460000041535349474E73005649455700534581
:100470005400434845434B53554D004E732D555042
:10048000534944452D444F574E0052455455524E02
:1004900000535550504C59004F5554444F4F520043
:1004A000494E444F4F5200534E002A2D4E4558544A
:1004B00000232D4558495400524547554C41544F4F
:1004C000520050554D50004F4B0000000000003EC0
:1004D0005B4F5B3E3E6B4F6B3E1C3E7C3E1C183CB4
:1004E0007E3C181C577D571C1C5E7F5E1C00183C10
:1004F0001800FFE7C3E7FF0018241800FFE7DBE759
:10050000FF30483A060E2629792926407F0505073F
:10051000407F05253F5A3CE73C5A7F3E1C1C08089B
:100520001C1C3E7F14227F22145F5F005F5F060960
:100530007F017F006689956A606060606094A2FFB9
:10054000A29408047E040810207E201008082A1CAB
:1005500008081C2A08081E101010100C1E0C1E0C77
:1005600030383E3830060E3E0E0600000000000017
:10057000005F00000007000700147F147F14242A86
:100580007F2A12231308646236495522500005035E
:100590000000001C2241000041221C0014083E08FB
:1005A0001408083E08080050300000080808080831
:1005B000006060000020100804023E5149453E00E2
:1005C000427F400042615149462141454B31181458
:1005D000127F1027454545393C4A49493001710988
:1005E00005033649494936064949291E0036360071
:1005F000000056360000081422410014141414148C
:1006000000412214080201510906324979413E7E17
:100610001111117E7F494949363E414141227F41B6
:1006200041221C7F494949417F090909013E41494D
:10063000497A7F0808087F00417F41002040413F00
:10064000017F081422417F404040407F020C027F1E
:100650007F0408107F3E4141413E7F090909063E63
:100660004151215E7F091929464649494931010115
:100670007F01013F4040403F1F2040201F3F403846
:10068000403F631408146307087008076151494527
:1006900043007F41410002040810200041417F00D7
:1006A00004020102044040404040000102040020D6
:1006B000545454787F48444438384444442038449F
:1006C00044487F3854545418087E0901020C525291
:1006D000523E7F0804047800447D40002040443DA1
:1006E000007F1028440000417F40007C04180478FB
:1006F0007C0804047838444444387C1414140808F2
:100700001414187C7C080404084854545420043FF2
:100710004440203C4040207C1C2040201C3C403079
:10072000403C44281028440C5050503C4464544CE5
:1007300044000836410000007F00000041360800F8
:10074000100808100878464146781EA1A161123AA7
:100750004040207A385454555921555579412154F7
:10076000547841215554784020545579400C1E52FC
:1007700072123955555559395454545939555454A0
:10078000580000457C410002457D420001457C4007
:10079000F0292429F0F0282528F07C545545002024
:1007A00054547C547C0A097F4932494949323248C1
:1007B000484832324A4848303A4141217A3A424028
:1007C0002078009DA0A07D39444444393D404040FC
:1007D0003D3C24FF2424487E4943662B2FFC2F2BCD
:1007E000FF0929F620C0887E09032054547941006E
:1007F00000447D413048484A32384040227A007AED
:100800000A0A727D0D19317D2629292F28262929CA
:10081000292630484D4020380808080808080808EC
:10082000382F10C8ACBA2F102834FA00007B000013
:1008300008142A142222142A1408AA005500AAAA6D
:1008400055AA55AA000000FF00101010FF00141454
:1008500014FF001010FF00FF1010F010F01414141B
:10086000FC001414F700FF0000FF00FF1414F40450
:10087000FC141417101F10101F101F1414141F0045
:10088000101010F0000000001F101010101F1010AA
:100890001010F010000000FF1010101010101010B9
:1008A00010FF10000000FF140000FF00FF00001FF9
:1008B00010170000FC04F414141710171414F40497
:1008C000F40000FF00F714141414141414F700F7C4
:1008D000141414171410101F101F141414F41410EF
:1008E00010F010F000001F101F0000001F14000087
:1008F00000FC140000F010F01010FF10FF1414148E
:10090000FF141010101F00000000F010FFFFFFFF89
:10091000FFF0F0F0F0F0FFFFFF0000000000FFFF2D
:100920000F0F0F0F0F38444438447C2A2A3E147EA0
:1009300002020606027E027E026355494163384484
:10094000443C04407E201E2006027E020299A5E758
:10095000A5991C2A492A1C4C7201724C304A4D4DF3
:10096000303048784830BC625A463D3E49494900DB
:100970007E0101017E2A2A2A2A2A44445F444440F7
:10098000514A444040444A51400000FF0103E08086
:10099000FF000008086B6B083612362436060F0974
:1009A0000F06000018180000001010003040FF0172
:1009B00001001F01011E00191D1712003C3C3C3CA8
:1009C000000000000041542B434D47443D00220AE3
:1009D0000041542B434D47533D22000A0041542B04
:1009E000434D47523D0011241FBECFEFD8E0DEBF7C
:1009F000CDBF12E0A0E0B1E0E4E9FBE502C0059064
:100A00000D92A23AB107D9F726E0A2EAB2E001C0FE
:100A10001D92AF3FB207E1F70E943A0C0C94C82D2B
:100A20000C9400000F93FF92F0905F000091010181
:100A3000F894002B61F4009179000093000101E02B
:100A400000930101F894112410928003789400E03F
:100A500000937A007894F0925F00FF900F911895C0
:100A60000F931F9310915F00F89407EF00937A00A3
:100A7000086000937A00789410935F001F910F91A3
:100A800018950F9303E000937F0003E1009350005B
:100A90000860009350000F9108950F931F938F707B
:100AA000182F16506CF410E0082F002B21F0110FB6
:100AB0000A950C94550500917E00012B00937E0051
:100AC00000E6082B00937C0000E000937B000FE61B
:100AD00000937A001F910F9108950F921F92FF9338
:100AE000EF93882710900101112899F010900001D0
:100AF000FBE0E8E2C895101420F0039411F0329660
:100B0000F9CF3196C895802D1124F89410920101E7
:100B10007894EF91FF911F900F9008951124F8940D
:100B20001092010178940895070012311C322A3383
:100B300040345B3579369C37B938CF39E12AED300E
:100B4000FF23DF92EF92FF920F931F93CF93DF93D8
:100B50005D988AE08A95F1F703E0D12CC9E8D3E0EB
:100B60000F2EF1E8EF2EF3E0FF2EF02D0E94401B38
:100B70008823F9F01D2D0E944C1B8823A9F0143006
:100B800080F4F701A12FB0E0AA0FBB1FAA0FBB1F73
:100B9000AA0FBB1FA455BD4F91919D93EC17FD0764
:100BA000D9F71F5F143030F40E94491B8111E3CF45
:100BB00001C01D2D0150D1F65D9A812FDF91CF919B
:100BC0001F910F91FF90EF90DF900895CF93DF93E7
:100BD000CDB7DEB72A970FB6F894DEBF0FBECDBFF4
:100BE0004AE0BE016F5F7F4F0E94FD2688E993E0D7
:100BF0000E94B320CE0101960E949E2086E993E0D8
:100C00000E94B3202A960FB6F894DEBF0FBECDBF68
:100C1000DF91CF91089580E880BF10927A008FE332
:100C200080937E0083E080937F0008950E940B06EE
:100C3000F89483B7816083BF8CE291E09093A9021E
:100C40008093A80210923B030E948D25789485B76B
:100C5000806685BF8F7D85BF8895000000000000FD
:100C6000000000002FE788E391E021508040904091
:100C7000E1F700C0000080913B0381110CC080911E
:100C8000A8029091A90201979093A9028093A802CB
:100C900018161906DCF283B78E7F83BF0E94982551
:100CA00087E00E944D050E944105089510923B0384
:100CB00083B7817F866083BF0E94160608951092D5
:100CC0003B0383B7817F846083BF0E94160608952B
:100CD000FF920F931F93CF93DF93C0916903D0913D
:100CE0006A0300E010E0F12C01C01F2D28E0020291
:100CF000C001112448E050E0BE0128E01202600D5E
:100D0000711D112484559D4F0E948A29892B29F039
:100D10001F5F14305CF3802F04C00F5F04302CF38E
:100D200083E6DF91CF911F910F91FF90089580E0AE
:100D300090E028E0DC01A455BD4FE0916903F091FB
:100D40006A03E80FF91F322F01900D923A95E1F7EF
:100D500008968032910571F708950E94F31D62E0B4
:100D600080E00E947B1E86EA93E09F938F9386E447
:100D700091E09F938F930E943F2A0E94561D2FEF70
:100D800081E19AE7215080409040E1F700C00000E7
:100D90000F900F900F900F900895CF9380910801BE
:100DA000882309F4AAC0EFE3F3E027E433E0C0E0CE
:100DB000819191918336910509F0CF5FE217F30796
:100DC000B9F78091CC02C81718F40E94F31D02C035
:100DD0000E940621C093CC02809117011F928F932D
:100DE000809118011F928F93809119011F928F9308
:100DF00084E391E09F938F930E943F2A8DB79EB723
:100E000008960FB6F8949EBF0FBE8DBF8091D80292
:100E10008823C9F080913F03909140038336910568
:100E200094F49F938F9380EA94E09F938F938BE247
:100E300091E09F938F930E943F2A0F900F900F9005
:100E40000F900F900F908091D9028823C9F0809164
:100E50004103909142038336910594F49F938F93BD
:100E600088E994E09F938F9382E291E09F938F9320
:100E70000E943F2A0F900F900F900F900F900F90AD
:100E80008091DA028823C9F0809143039091440352
:100E90008336910594F49F938F9381E994E09F9317
:100EA0008F9389E191E09F938F930E943F2A0F9047
:100EB0000F900F900F900F900F908091DB0288237E
:100EC000C9F080914503909146038336910594F4CF
:100ED0009F938F938AE894E09F938F9380E191E0B2
:100EE0009F938F930E943F2A0F900F900F900F9027
:100EF0000F900F901092080109C09FEF23ED80E33F
:100F0000915020408040E1F700C00000CF9108954B
:100F100080917B03882361F08091DC02882321F09B
:100F2000289A1092DC020895289881E08093DC02D0
:100F30000895FF920F931F93CF93DF93CDB7DEB742
:100F40002C970FB6F894DEBF0FBECDBF8C0168940E
:100F5000FF24F2F8B80180E00E94C726811122C068
:100F60002FE78FE492E1215080409040E1F700C0EC
:100F700000000E948807BE016F5F7F4FC8010E947A
:100F8000822781110FC04AE0BE016D5F7F4F8981CA
:100F90009A810E94FD26811105C0CE0103960E9410
:100FA000582904C0FA94B1F683E690E02C960FB667
:100FB000F894DEBF0FBECDBFDF91CF911F910F918F
:100FC000FF900895CF93DF938091CD02833024F476
:100FD0008F5F8093CD0202C01092CD02C091CD02EE
:100FE000DD27C7FDD095FE01E852FD4F80818823A3
:100FF000F1F1CE01880F991F880F991F880F991F53
:1010000084559D4F0E949907CC0FDD1FC15CDC4FBA
:10101000998388838091CD02992787FD9095FC0163
:10102000EE0FFF1FE15CFC4F20813181233631053B
:10103000F1F4FC01EC52FD4F2081223030F4FC0130
:10104000EC52FD4F2F5F208312C0FC01E852FD4F90
:101050001082FC01E253FD4F21E02083FC01EE0FE2
:10106000FF1FE15CFC4F83E690E0918380838091D9
:101070004703882399F080913F039091400320918A
:101080003D0330E02B5F3F4F281739071CF48336B0
:10109000910559F44398459A449A4EC080913F0374
:1010A0009091400383369105B1F020913C0330E0EC
:1010B0008217930724F44398459A449A0CC02091D0
:1010C0003D0330E0821793071CF04598449803C015
:1010D00045984398449A8091430390914403833602
:1010E000910551F120914503309146032336310596
:1010F00019F1821B90917E03891768F420913C03BB
:1011000030E040913F0350914003241735071CF411
:10111000459A439A449890913E03981768F48091B9
:101120003D0390E020913F03309140032817390799
:101130001CF44398459A449ADF91CF910895FC019D
:10114000208121502E3F48F0319687E091919150B7
:101150009E3F28F08150D1F704C081E0089581E0DE
:10116000089580E008958F929F92AF92BF92CF92A0
:10117000DF92EF92FF920F931F93CF93DF930FE3D2
:1011800013E00F2EF8EDEF2EF2E0FF2EF02DC0E071
:10119000D0E0B12CAA24A394812C99249394C090DC
:1011A0006903D0906A03CC0EDD1EC6010E949F0821
:1011B0008823A1F0C6010E949907F80191838083DA
:1011C0008336910519F0F701908201C0A82C8FE6B3
:1011D00097E10197F1F700C0000001C0B394289691
:1011E0000E5F1F4F9FEFE91AF90AC032D105B9F619
:1011F000BB2011F080E001C08A2DDF91CF911F91BB
:101200000F91FF90EF90DF90CF90BF90AF909F90A5
:101210008F9008952F923F924F925F926F927F929C
:101220008F929F92AF92BF92CF92DF92EF92FF92F6
:101230000F931F93CF93DF9300D0CDB7DEB790917C
:10124000D302923009F488C028F4992351F09130E8
:1012500079F060C1933009F419C1953009F447C1A0
:1012600059C11092CD0281E08093D30280E05DC12C
:101270005090CD02052D112707FD1095C801880F4C
:10128000991F880F991F880F991F9C0124553D4F66
:101290007901C9010E949F08882309F43DC1C090CB
:1012A0006903D0906A030F2EF8EDAF2EF2E0BF2E47
:1012B000F02DBA82A982812C912C332433944424BA
:1012C0004394370108521D4F212C48E050E0B601ED
:1012D000680D791DC7010E948A29892BE9F489814B
:1012E0008A19851569F1D301A40144555D4F88E041
:1012F000FA0190812C912193AF019D93E981FA81AC
:101300009081F8012081E981FA812083F80190839E
:10131000815071F7322C422CF8E08F0E911C2981FC
:101320003A812F5F3F4F3A83298330E2831691043D
:1013300061F6442029F082E08093D30280E0F5C07A
:10134000332009F4EBC082E085150CF4E9C0539416
:101350005092CD0280E0E9C00E94F31DE091CD02E1
:1013600098E0E902F0011124E455FD4F86811F92B7
:101370008F9385811F928F9384811F928F93838196
:101380001F928F9382811F928F9381811F928F93DF
:1013900080811F928F938CE291E09F938F930E94A4
:1013A0002B2A81E694E09F938F938EE694E09F939F
:1013B0008F9389E091E09F938F930E943F2A0FB60D
:1013C000F894DEBF0FBECDBF8091D802811112C04C
:1013D00080EA94E09F938F931F921F9282E091E0A6
:1013E0009F938F930E943F2A0F900F900F900F9022
:1013F0000F900F908091D902811113C088E994E079
:101400009F938F931F9281E08F938BEF90E09F9338
:101410008F930E943F2A0F900F900F900F900F9084
:101420000F908091DA02811113C081E994E09F93BB
:101430008F931F9282E08F9384EF90E09F938F931E
:101440000E943F2A0F900F900F900F900F900F90D7
:101450008091DB02811113C08AE894E09F938F93FF
:101460001F9283E08F938DEE90E09F938F930E9465
:101470003F2A0F900F900F900F900F900F900E94A7
:10148000561D83E08093D30280E04FC090ED980F0B
:10149000943008F047C0892F90E0FC01E852FD4FDE
:1014A000208121111FC09C01220F331F220F331FE7
:1014B000220F331FA0916903B0916A03A20FB31FDB
:1014C000E091CD0228E0E202F0011124E455FD4F45
:1014D00028E001900D922A95E1F7FC01E852FD4FBA
:1014E00021E0208385E08093D30280E01EC040E2AB
:1014F00050E06FE070E08091690390916A030E9470
:10150000A12C8091CD0283307CF481E08093D302C2
:1015100080E00BC080E009C081E007C080E005C02A
:1015200081E003C080E001C081E00F900F90DF9167
:10153000CF911F910F91FF90EF90DF90CF90BF90D0
:10154000AF909F908F907F906F905F904F903F9063
:101550002F90089528E0829FC0011124FC01E455DA
:10156000FD4F80E011928F5F8830E1F70895BF92C0
:10157000CF92DF92EF92FF920F931F93CF93DF935F
:10158000B82E8FEC90E00E942C28EC01009709F413
:101590007DC06C0180EAC80ED11C44E150E06CE6CD
:1015A00073E0C6010E94AE2940EA50E06AE973E0A8
:1015B000CE010E9476294EE150E067EA74E088E4AB
:1015C00093E00E947629FE0101900020E9F731970F
:1015D000EC1BFD0B0F2EF0EAEF2EF12CF02DA701E6
:1015E0004E1B5F0B68E473E0CE010E949E291F92A0
:1015F000BF9288EE90E09F938F9308E413E01F93CF
:101600000F930E94952AFE0101900020E9F731977F
:10161000EC1BFD0BA7014E1B5F0BB801CE010E9416
:101620009E29809117011F928F93809118011F921C
:101630008F93809119011F928F9325ED30E03F9396
:101640002F931F930F930E94952AFE010190002073
:10165000E9F73197EC1BFD0BA7014E1B5F0BB8019F
:10166000CE010E949E290E94880741E050E0BE0101
:10167000C6010E94D023CE010E94C4288DB79EB718
:1016800040960FB6F8949EBF0FBE8DBFEB2DF0E0D5
:10169000E253FD4F10828B2D0E94AA0ADF91CF9159
:1016A0001F910F91FF90EF90DF90CF90BF90089522
:1016B0000F931F93CF93DF938FEC90E00E942C2821
:1016C000EC010097D1F08C0100561F4F44E150E02F
:1016D0006CE673E0C8010E94AE2940EA50E065EB79
:1016E00073E0CE010E94762942E050E0BE01C801BD
:1016F0000E94D023CE010E94C428DF91CF911F9178
:101700000F9108950F931F93CF93DF938FEC90E089
:101710000E942C28EC01009709F446C08C01005669
:101720001F4F44E150E06CE673E0C8010E94AE290F
:1017300040EA50E066EA73E0CE010E94762980918B
:1017400017011F928F93809118011F928F938091A0
:1017500019011F928F9382EC90E09F938F9388E4FE
:1017600093E09F938F930E94952AFE0101900020A1
:10177000E9F7AE014E1B5F0B4F555F4F68E473E016
:10178000CE010E949E2942E050E0BE01C8010E94A5
:10179000D023CE010E94C4288DB79EB70A960FB6FB
:1017A000F8949EBF0FBE8DBFDF91CF911F910F9117
:1017B00008958091410390914203833691057CF412
:1017C00020916B0330E0A901481B590B4A305105A9
:1017D00024F081E080934703089510924703089511
:1017E0009F92AF92BF92CF92DF92EF92FF920F93B0
:1017F0001F93CF93DF93C8EDD2E00F2EFFE3EF2EC0
:10180000F3E0FF2EF02D00E010E0992493948881FE
:1018100081111BC0C0906903D0906A03C00ED11E15
:10182000C6010E949F08882381F0C6010E94990783
:10183000F701918380838336910509F098828FE6C2
:1018400097E10197F1F700C000002196085F1F4F54
:1018500092E0E90EF11C00321105C9F6DF91CF913B
:101860001F910F91FF90EF90DF90CF90BF90AF90BE
:101870009F900895CF93DF93CDB7DEB763970FB6F0
:10188000F894DEBF0FBECDBF89E091E09093FC06D7
:101890008093FB064AB129B181E090E0BC0102C00F
:1018A000660F771F2A95E2F79B01209524232AB91A
:1018B0002BB139B102C0880F991F3A95E2F7822BFC
:1018C0008BB910927B0310922A0310922903109275
:1018D0002803109227030E94021D4B9B04C00E9404
:1018E000AD060E94532981E08093A7028093A6024F
:1018F0001092A50281E290E00E942C2890936A0346
:1019000080936903009709F489C040E250E06FE0DA
:1019100070E00E94892C86E390E00E94992C8093CD
:101920003C0385E390E00E94992C80933D0384E37F
:1019300090E00E94992C8093680383E390E00E94DA
:10194000992C80937F0382E390E00E94992C8093EE
:101950007C0381E390E00E94992C80937D0380E3D7
:1019600090E00E94992C80937E038FE290E00E9489
:10197000992C80933E034EE050E060E070E08CE6EE
:1019800093E00E94892C1092A402E4E6F0E08081AA
:10199000886A808387B1806387B93B9A0E948618E2
:1019A000559A5D9A0E94F31D61E085E00E947B1EBE
:1019B00082EC94E09F938F9383E993E09F938F93BE
:1019C0000E943F2A62E083E00E947B1E88EB94E045
:1019D0009F938F9380E993E09F938F930E943F2A78
:1019E0000E94561D83E390E00E94EF170E94172289
:1019F0000E94580B24E04AE250E06BE270E089E27A
:101A000090E00E94AB1B78940E94B3080FB6F89444
:101A1000DEBF0FBECDBF882319F021C00E9453291D
:101A20000E94A10580936703F12C1F2D0FC00E9417
:101A30009A19EFE6F7E13197F1F700C000000E9434
:101A4000A105809367031F5F153021F08091670324
:101A5000843069F7F12E81E08093D20206C00E94A3
:101A6000970684E080936703F12C87E00E944D0580
:101A70000E9441050E94AC180E94F31D0E9406219D
:101A80008091670390E00E94D52085EF93E00E944B
:101A9000B3200E94561D80916703843009F076C000
:101AA0000E946806E82E082F112707FD10950336BF
:101AB000110509F043C0E12C0E94F2200E2D10E028
:101AC000C80101960E94D520F801EE0FFF1FEE0F0E
:101AD000FF1FEE0FFF1FE455FD4F8081803129F479
:101AE0008CEE93E00E94B3200BC0823229F48BED80
:101AF00093E00E94B32004C083EE93E00E94B320E1
:101B0000C801880F991F880F991F880F991F845546
:101B10009D4F0E94AA26811105C086ED93E00E9488
:101B2000B32004C081ED93E00E94B320E394809140
:101B30006703E81608F20E94561D4DC022E234E009
:101B40003F932F9328E833E03F932F930E943F2A3F
:101B50001F93EF928BE194E09F938F938CE793E038
:101B60009F938F930E943F2A8BE094E09F938F93E3
:101B700085E793E09F938F930E943F2A0E94561D12
:101B80000FB6F894DEBF0FBECDBF25C082E294E051
:101B90009F938F938DE693E09F938F930E943F2AAC
:101BA0008BE194E09F938F9385E693E09F938F93CF
:101BB0000E943F2A83E194E09F938F938EE593E008
:101BC0009F938F930E943F2A0E94561D0FB6F89450
:101BD000DEBF0FBECDBF7FEF89E698E17150804038
:101BE0009040E1F700C000000E94F31D209A10927F
:101BF000800310923B0310923A030E948D250E94AD
:101C0000B125109247038091410380936B0380912B
:101C1000D202811106C00E94E20781E080937B031B
:101C200005C083E08093A7021092D3021A8AA1E034
:101C3000A88B0F2EF3E68F2EF02D0F2EF3E69F2E9E
:101C4000F02D1F861E86198A1B8A0EEC12E00F2EBD
:101C5000F2ED6F2EF2E07F2EF02D0F2EF8E14F2ED9
:101C6000F1E05F2EF02D0F2EF9E12F2EF1E03F2E47
:101C7000F02D03C06894FF24F2F8809122038111B3
:101C80000C94911780913A038823A1F081E080930E
:101C9000220310C0933070F04B9B06C00E94AD062B
:101CA0000E94820B0E945329F89410923A031092DA
:101CB000220378940E946D05D82EBAE28B1310C0CF
:101CC0008091A40281110CC08091A7028093A6028A
:101CD00091E09093A702813009F49AC00E94F31D0D
:101CE0008091A702813041F118F1833011F00C94FA
:101CF00023178D2D0E940A09882309F4BECF0E9464
:101D0000E2078091410380936B038091A702809347
:101D1000A60281E08093A7021092A50280937B0324
:101D20008091690390916A030E94C4280C94231740
:101D30000E94CD060C9423178D2D90E0FC01B397E3
:101D4000E731F10508F064C0EC5CFF4F0C94032808
:101D50008091A50281115CC088E08093A50202C138
:101D60008091A502811154C082E08093A5020DC329
:101D70008091A50281114CC085E08093A50280C7A7
:101D80008091A502811144C084E08093A5029CC487
:101D90008091A50281113CC084E08093A50281E07E
:101DA0008093A402EAE0EE8733C08091A5028111FE
:101DB0002FC086E08093A5023AC78091A5028111C9
:101DC00027C083E08093A5024AC38091A5028111B8
:101DD0001FC087E08093A502A3C38091A502811153
:101DE00017C081E08093A50251C10E94F31D0E949B
:101DF000561D8091A402882329F01092A50210920A
:101E0000A40206C01092A70281E08093080135CF9A
:101E10004091A50250E04A30510510F00C94231770
:101E2000FA01E55BFF4F0C9403288091A4028823FC
:101E300021F00E94F31D1092A4020E9406218BEC57
:101E400093E09F938F930F2EFEE6CF2EF4E0DF2ECC
:101E5000F02DDF92CF921F9281E08F9384E593E083
:101E60009F938F930E943F2A87EA94E09F938F93DA
:101E70000F2EF9E6EF2EF4E0FF2EF02DFF92EF92F9
:101E80001F9282E08F9389E493E09F938F930E9447
:101E90003F2A0F2EFBE3AF2EF4E0BF2EF02DBF92B2
:101EA000AF92DF92CF921F9283E08F938FE393E004
:101EB0009F938F930E943F2A89E594E09F938F938D
:101EC0008DE594E09F938F93DF92CF921F9284E0F1
:101ED0008F9382E393E09F938F930E943F2A0FB6E4
:101EE000F894DEBF0FBECDBF85E494E09F938F933F
:101EF0001F9285E08F938BE293E09F938F930E94D4
:101F00003F2ABF92AF92FF92EF921F9286E08F938B
:101F100081E293E09F938F930E943F2A81E694E0B1
:101F20009F938F93FF92EF921F9287E08F9387E1A9
:101F300093E09F938F930E943F2A83E094E09F93C6
:101F40008F93FF92EF921F9288E08F938EE093E041
:101F50009F938F930E943F2A0FB6F894DEBF0FBE67
:101F6000CDBF71C78091A402811104C081E080932C
:101F7000A40208C07E85713009F120F0723009F4A6
:101F80005DC061C70E94F31D0E9406218BEC93E0A7
:101F90009F938F938EE694E09F938F9386E093E0D8
:101FA0009F938F930E943F2A0F900F900F900F9056
:101FB0000F900F901F8681E08E8745C780ED8D0DB5
:101FC0008A3078F49F859E3060F48D2D90E00E94D9
:101FD000612AAF85EA2FF0E0E459FC4FD082AF5F71
:101FE000AF87BAE2DB122FC72F85E22FF0E00F2E6A
:101FF000FCE6EF2EF3E0FF2EF02DE459FC4F1082AB
:1020000085E494E09F938F9380E494E09F938F9373
:102010008FEF92E09F938F930E943F2AFF92EF925F
:102020008BEF92E09F938F930E943F2A0FB6F89414
:10203000DEBF0FBECDBF72E07E8705C78AE2D81231
:1020400002C7ECE6F3E001900020E9F7AF014C563F
:10205000534060E070E08CE693E00E94C32C87EC74
:1020600094E09F938F9380E494E09F938F9382EF0B
:1020700092E09F938F930E943F2A0F900F900F90B2
:102080000F900F900F9093E09E87DDC68091A40281
:10209000811104C081E08093A40214C0AE85A230F7
:1020A00009F46BC028F4AA2369F0A130C1F1CBC6B2
:1020B000BE85B43009F465C108F48DC0B53009F4AB
:1020C000B7C0C1C60E94F31D0E9406218AEA94E0AF
:1020D0009F938F9381EB94E09F938F938BEE92E08D
:1020E0009F938F930E943F2A87EA94E09F938F9358
:1020F00080EA94E09F938F9382EE92E09F938F9378
:102100000E943F2A0FB6F894DEBF0FBECDBF1A8AD9
:10211000F1E0F88B1F8625E02E87198A94C60E946D
:10212000F31D0E9406218AEA94E09F938F9381EB2E
:1021300094E09F938F938BED92E09F938F930E94F7
:102140003F2A87EA94E09F938F9388E994E09F93D6
:102150008F9382ED92E09F938F930E943F2A0FB658
:10216000F894DEBF0FBECDBF71E07A8B82E0888B22
:102170001F8695E09E87198A66C60E94F31D0E94FD
:1021800006218AEA94E09F938F9381EB94E09F93DA
:102190008F938BEC92E09F938F930E943F2A87EA64
:1021A00094E09F938F9381E994E09F938F9382ECC7
:1021B00092E09F938F930E943F2A0FB6F894DEBF60
:1021C0000FBECDBFB2E0BA8BE3E0E88B1F86F5E02F
:1021D000FE87198A38C60E94F31D0E9406218AEAEA
:1021E00094E09F938F9381EB94E09F938F938BEB7D
:1021F00092E09F938F930E943F2A87EA94E09F93F7
:102200008F938AE894E09F938F9382EB92E09F9361
:102210008F930E943F2A0FB6F894DEBF0FBECDBF4A
:1022200033E03A8B188A1F8645E04E87198A0BC621
:1022300080ED8D0D8A3008F0A0C06989673008F004
:1022400098C08D2D90E00E94612A7F85872F90E0B5
:10225000E1E0F0E0EC0FFD1FE80FF91FD0827230D3
:1022600018F47F5F7F8789C0E2E0F0E0EC0FFD1F8C
:10227000E80FF91F1082CE0101960E9458298F3F66
:10228000910511F00CF065C00F2EF6E0EF2EF12C49
:10229000F02DEC0EFD1EA989EA0EF11CF7018083DA
:1022A00083E00E940B21D7018C911F928F9385E2CE
:1022B00091E09F938F930E942B2A81E00E940B2133
:1022C000B989BF5FB98B0F900F900F900F90B73007
:1022D00009F052C01D86FE0136963A8928E0329FE9
:1022E000A001112444555D4F80E090E0232F30E0A1
:1022F00079016191DA01A80FB91F6C9301968730BB
:102300009105B1F767E070E0CE0106960E94E125E5
:10231000D82EF701EE0FFF1FEE0FFF1FEE0FFF1F6E
:10232000E455FD4F87831F928F9382E794E09F933C
:102330008F9388EA92E09F938F930E943F2A0F9099
:102340000F900F900F900F900F901F8644E04E87D4
:1023500014C083E00E940B2184EA92E09F938F9344
:102360000E943F2A83E00E940B210F900F901F864E
:1023700004C064E06E8701C01F867AE2D71263C58D
:1023800054C58AE2D8125FC553C58091A402811159
:102390005CC081E08093A4020E94F31D8BE794E06F
:1023A0009F938F9381EA92E09F938F930E943F2A9D
:1023B0000F2EF2EBEF2EF2E0FF2EF02D0F2EF2EDAE
:1023C000CF2EF2E0DF2EF02D0F900F900F900F9098
:1023D000D7018C911F928F93F701319780811F92C3
:1023E0008F93319780811F928F93319780811F92B5
:1023F0008F93319780811F928F93319780811F92A5
:102400008F93319780811F928F93ABE2B1E0BF939E
:10241000AF930E942B2AF8E0EF0EF11C0FB6F89450
:10242000DEBF0FBECDBFEC14FD0491F681EB94E04E
:102430009F938F938AE992E09F938F930E943F2A04
:102440000F900F900F900F90FEC43FEF49E668E1A8
:10245000315040406040E1F700C00000F4C480917A
:10246000A4028111F0C40E94F31D0E94062180EA9B
:1024700094E09F938F931F92DD24D394DF920F2ECD
:10248000F7EAEF2EF4E0FF2EF02DFF92EF9280E9B5
:1024900092E09F938F930E943F2A88E994E09F9354
:1024A0008F931F9282E08F93FF92EF9285E892E0E4
:1024B0009F938F930E943F2A81E994E09F938F938B
:1024C0001F9283E08F93FF92EF928AE792E09F93AF
:1024D0008F930E943F2A8AE894E09F938F931F92E4
:1024E00084E08F93FF92EF928FE692E09F938F9319
:1024F0000E943F2A0FB6F894DEBF0FBECDBF81EB1E
:1025000094E09F938F9388E692E09F938F930E942D
:102510003F2AD092A4020F900F900F900F9093C477
:102520008091A4028111C6C00E94F31D0E94062161
:1025300020913C03822F992787FD90959F932F939D
:102540000F2EFDE5CF2EF4E0DF2EF02DDF92CF929F
:102550000F2EF0EAAF2EF4E0BF2EF02DBF92AF9217
:1025600080E692E09F938F930E943F2A20913D0343
:10257000822F992787FD90959F932F930F2EF9E532
:10258000EF2EF4E0FF2EF02DFF92EF92BF92AF926C
:1025900087E592E09F938F930E943F2A20916803E2
:1025A000822F992787FD90959F932F93DF92CF924B
:1025B0000F2EF8E9AF2EF4E0BF2EF02DBF92AF92B0
:1025C0008EE492E09F938F930E943F2A20917F0395
:1025D000822F992787FD90959F932F93FF92EF92DB
:1025E000BF92AF9285E492E09F938F930E943F2A1F
:1025F0000FB6F894DEBF0FBECDBF20917C03822FB3
:10260000992787FD90959F932F93DF92CF920F2E5E
:10261000F1E9AF2EF4E0BF2EF02DBF92AF928CE324
:1026200092E09F938F930E943F2A20917D03822FF7
:10263000992787FD90959F932F93FF92EF92BF92DA
:10264000AF9283E392E09F938F930E943F2A209161
:102650007E03822F992787FD90959F932F93DF927A
:10266000CF920F2EFFE4CF2EF4E0DF2EF02DDF927D
:10267000CF928AE292E09F938F930E943F2A20910B
:102680003E03822F992787FD90959F932F93FF926A
:10269000EF92DF92CF9281E292E09F938F930E941C
:1026A0003F2A81E08093A4020FB6F894DEBF0FBEEC
:1026B000CDBFC9C3FFEF29E638E1F15020403040DB
:1026C000E1F700C00000BFC38091A402811104C0E3
:1026D00081E08093A4020CC04E85842F90E08C3062
:1026E000910508F0B0C3FC01EB5AFF4F0C9403288E
:1026F0000E94F31D0E9406218AEA94E09F938F9323
:1027000081EB94E09F938F938AE192E09F938F9364
:102710000E943F2A80EA94E09F938F9384E594E09F
:102720009F938F9383E192E09F938F930E943F2A20
:102730008DE594E09F938F938EE092E09F938F932B
:102740000E943F2A8CE393E09093AB028093AA020D
:102750000FB6F894DEBF0FBECDBF71E0788B1F8639
:1027600089E08E8770C30E94F31D0E9406218AEAC9
:1027700094E09F938F9381EB94E09F938F9387E0F6
:1027800092E09F938F930E943F2A80EA94E09F9368
:102790008F9384E594E09F938F9380E092E09F93E2
:1027A0008F930E943F2A89E594E09F938F938BEF4C
:1027B00091E09F938F930E943F2A8DE393E0909343
:1027C000AB028093AA020FB6F894DEBF0FBECDBF56
:1027D000B2E0B88B1F86E9E0EE8735C30E94F31D97
:1027E0000E9406218AEA94E09F938F9381EB94E004
:1027F0009F938F9384EF91E09F938F930E943F2A42
:1028000088E994E09F938F9384E594E09F938F935E
:102810008DEE91E09F938F930E943F2A8DE594E087
:102820009F938F9388EE91E09F938F930E943F2A0E
:1028300088E693E09093AB028093AA020FB6F894D7
:10284000DEBF0FBECDBF33E0388B1F8649E04E8719
:10285000FAC20E94F31D0E9406218AEA94E09F9327
:102860008F9381EB94E09F938F9381EE91E09F9300
:102870008F930E943F2A88E994E09F938F9384E589
:1028800094E09F938F938AED91E09F938F930E94A2
:102890003F2A89E594E09F938F9385ED91E09F9384
:1028A0008F930E943F2A8FE793E09093AB0280932F
:1028B000AA020FB6F894DEBF0FBECDBF74E0788BCE
:1028C0001F8689E08E87BFC20E94F31D0E940621E9
:1028D0008AEA94E09F938F9381EB94E09F938F9388
:1028E0008EEC91E09F938F930E943F2A81E994E0C0
:1028F0009F938F9384E594E09F938F9387EC91E06F
:102900009F938F930E943F2A8DE594E09F938F932E
:1029100082EC91E09F938F930E943F2A8CE793E093
:102920009093AB028093AA020FB6F894DEBF0FBE5D
:10293000CDBFB5E0B88B1F86E9E0EE8784C20E9468
:10294000F31D0E9406218AEA94E09F938F9381EB06
:1029500094E09F938F938BEB91E09F938F930E94D2
:102960003F2A81E994E09F938F9384E594E09F93BD
:102970008F9384EB91E09F938F930E943F2A89E588
:1029800094E09F938F938FEA91E09F938F930E949F
:102990003F2A8DE793E09093AB028093AA020FB693
:1029A000F894DEBF0FBECDBF36E0388B1F8649E0FE
:1029B0004E8749C20E94F31D0E9406218AEA94E0D4
:1029C0009F938F9381EB94E09F938F9388EA91E09C
:1029D0009F938F930E943F2A8FE494E09F938F935D
:1029E00084E594E09F938F9381EA91E09F938F9386
:1029F0000E943F2A8DE594E09F938F938CE991E0AC
:102A00009F938F930E943F2A8EE793E09093AB02AF
:102A10008093AA020FB6F894DEBF0FBECDBF77E059
:102A2000788B1F8689E08E870EC20E94F31D0E945C
:102A300006218AEA94E09F938F9381EB94E09F9321
:102A40008F9385E991E09F938F930E943F2A8FE4B3
:102A500094E09F938F9384E594E09F938F938EE807
:102A600091E09F938F930E943F2A89E594E09F9382
:102A70008F9389E891E09F938F930E943F2A8EE382
:102A800093E09093AB028093AA020FB6F894DEBF56
:102A90000FBECDBFBAE0B88B1F86E9E0EE87D3C189
:102AA0000E94F31D0E94062185E494E09F938F937A
:102AB00080E494E09F938F9381E891E09F938F93BC
:102AC0000E943F2A0F900F900F900F900F900F9041
:102AD000188AFBE0FE87B7C12AE2D212B4C1609126
:102AE0003C0386E390E00E94B12C60913D0385E3B6
:102AF00090E00E94B12C6091680384E390E00E9412
:102B0000B12C60917F0383E390E00E94B12C60912F
:102B10007C0382E390E00E94B12C60917D0381E30D
:102B200090E00E94B12C60917E0380E390E00E94CF
:102B3000B12C60913E038FE290E00E94B12C40E204
:102B400050E06FE070E08CEA92E00E94A12C87ECEC
:102B500094E09F938F9380E494E09F938F9388E712
:102B600091E09F938F930E943F2A0F900F900F90B8
:102B70000F900F900F9038E03E8765C14AE2D41263
:102B800062C159C180ED8D0D8A3008F04CC06F854F
:102B90006F15E0F461110AC079E3D71207C08DE226
:102BA00089838DE290E00E94612A0CC0E1E0F0E0B0
:102BB000EC0FFD1F8F85E80FF11DD0828D2D90E069
:102BC0000E94612A9F859F5F9F872DC0AF858A2FB6
:102BD00090E0E1E0F0E0EC0FFD1FE80FF91FD0827C
:102BE000E2E0F0E0EC0FFD1FE80FF91F10828D2DE1
:102BF00090E00E94612ACE0101960E945829E0913E
:102C0000AA02F091AB0280839F938F938BE691E0B1
:102C10009F938F930E943F2A0F900F900F900F90D9
:102C20001F86B8E0BE87EAE2DE120DC107C18091BF
:102C3000A402811105C00E94F31D81E08093A402CB
:102C400082E00E94CE200E940621809117011F92EF
:102C50008F93D2018C911F928F93F10180811F92EB
:102C60008F938BE591E09F938F930E943F2A81E0A1
:102C70000E94CE200FB6F894DEBF0FBECDBFE3C0DA
:102C80008091A402811106C00E94F31D81E080930F
:102C9000A40212C03E85323009F442C028F4332326
:102CA00059F0313019F1CFC04E85433009F454C08A
:102CB000443009F4A5C0C7C0AFE2B4E0BF93AF93FE
:102CC000A6E5B1E0BF93AF930E943F2A3092AB02DA
:102CD0002092AA020F900F900F900F90F1E0F88BC6
:102CE0001F8623E02E8737E13B8BADC084E394E061
:102CF0009F938F9381E591E09F938F930E943F2A4A
:102D00005092AB024092AA020F900F900F900F903A
:102D100042E0488B1F8663E06E877CE37B8B93C029
:102D2000A8E2B4E0BF93AF93ACE4B1E0BF93AF933C
:102D30000E943F2A87E191E09093AB028093AA0220
:102D40000F900F900F900F90F4E0F88B1F8623E008
:102D50002E873CE33B8B77C080ED8D0D8A3008F0E9
:102D60004BC04F854F1578F4E1E0F0E0EC0FFD1F0C
:102D7000E40FF11DD0828D2D90E00E94612A7F85A5
:102D80007F5F7F8739C0AF858A2F90E0E1E0F0E078
:102D9000EC0FFD1FE80FF91FD082E2E0F0E0EC0F2E
:102DA000FD1FE80FF91F10828D2D90E00E94612A0F
:102DB000CE0101960E94582999237CF0BB892B2FC4
:102DC00030E0281739074CF0E091AA02F091AB02ED
:102DD0008083E889EE871F860FC082E00E940B2166
:102DE00089E491E09F938F930E943F2A82E00E94A2
:102DF0000B210F900F901F86FAE2DF1224C021C032
:102E00002AE2D21220C086E08093A5021092A4028A
:102E10001AC00E94F31D8091A7028093A60210920F
:102E2000A7021092A5020C943D0E38893E870BC074
:102E300048894E8708C068896E8705C078897E8773
:102E400002C088898E870E94561D0E9488077801DB
:102E50008E2D801BD7019D917D0191110E94B70A93
:102E6000E614F704A9F78091A702813079F48091E4
:102E70008003833058F081E08093A6021092A7026D
:102E80001092A402109280030E94F31D80913B03D4
:102E9000882379F08091A7028093A60281E0809335
:102EA000A7021092A4021092800310923B030E948A
:102EB000F31DF201208130E0892D992787FD90953F
:102EC0002817390739F00E94E207D2019C9081E06F
:102ED00080930801F20180819DEC899F912D11243E
:102EE000969596959695990F292F220F220F920F5E
:102EF000891302C00E94F00BD1012C9130E0882D83
:102F0000992787FD90952817390711F40C943A0EEC
:102F10000E94D90BF10180806894FF24F2F80C9490
:102F20003D0E9091220380913A0381110C944A0E38
:102F30000C945A0E1F920F920FB60F9211242F93DA
:102F40008F939F93EF93FF938091C0002091C600D1
:102F50008871E091DF02EF5FEF719091DE02E91777
:102F600039F0E093DF02F0E0EE51FD4F208301C025
:102F700082E08093DD02FF91EF919F918F912F91DD
:102F80000F900FBE0F901F9018951F920F920FB6C3
:102F90000F9211248F939F93EF93FF939091E102EF
:102FA0008091E002981769F0E091E002EF5FEF7125
:102FB000E093E002F0E0EE5FFC4F80818093C6007A
:102FC00005C0E1ECF0E080818F7D8083FF91EF917F
:102FD0009F918F910F900FBE0F901F901895109298
:102FE000E1021092E0021092DF021092DE029923B9
:102FF00024F422E02093C0009F779093C500809333
:10300000C40088E98093C10086E08093C2000895DF
:103010009091DF028091DE02981791F0E091DE023C
:10302000EF5FEF71E093DE02F0E0EE51FD4F2081A3
:103030008091DD0290E0982F8827820F911D0895DE
:1030400080E091E008952091E1022F5F2F7190912F
:10305000E0022917E1F3E22FF0E0EE5FFC4F8083FE
:103060002093E102E1ECF0E08081806280830895AA
:10307000CF93DF93EC018881882331F021960E9461
:10308000231889918111FBCFDF91CF910895CF93C0
:10309000DF93EC012196FC018491882339F00E9492
:1030A0002318FE01849121968111F9CFDF91CF91F0
:1030B00008958091DF022091DE0290E04F96821BFE
:1030C00091096FE170E00E94EF2708958091DE0280
:1030D0008093DF020895CF93DF93CDB7DEB72A97B1
:1030E0000FB6F894DEBF0FBECDBF4AE0BE016F5FE2
:1030F0007F4F0E94FE290E9438182A960FB6F89436
:10310000DEBF0FBECDBFDF91CF910895F894A89593
:1031100084B7877F84BFE0E6F0E0808188618083A8
:103120001082789408951F920F920FB60F92112477
:10313000F894A89578940F900FBE0F901F90189553
:10314000F89484B7877F84BFE0E6F0E088E180836D
:1031500081E680837894089520E430E05FEF4FEFBC
:1031600008C001970097E9F7215031092115310571
:1031700019F0852F942FF5CFE0E7F0E08081887F6C
:103180008083E6EBF0E08081806280831092B20061
:1031900085E08093B10080818F71E9F7E0E7F0E08E
:1031A0008081816080837894089540911C015091C2
:1031B0001D019A013695279536952795ABE7B4E121
:1031C0000E9409289695879564E6689F9001699FFB
:1031D000300D11244217530791F49A01329522952C
:1031E0002F7023273F702327AEE3BAE00E940928FF
:1031F000942F20E7829F900D1124892F0895842F0A
:10320000837008951F920F920FB60F9211242F937F
:103210003F934F935F936F937F938F939F93AF935E
:10322000BF93EF93FF93809117018F5F8C3319F059
:10323000809317016EC010921701809180038F5FF9
:1032400080938003809118018F5F8C3319F08093F5
:10325000180158C010921801809119018F5F8831B0
:1032600019F0809319014EC010921901EAE1F1E0C2
:1032700080818F5F8083803249F4EBE1F1E08081CF
:103280008F5F808381E080931A012EC08F3179F4A3
:1032900080911B01982F9D7F943011F0993021F57A
:1032A0008F5F80931B0181E080931A011DC08E31D6
:1032B00059F480911B018230B9F483E080931B01A3
:1032C00081E080931A0110C08D3171F480911B014F
:1032D000823051F40E94D5188823A1F083E08093B6
:1032E0001B0181E080931A0180911B018D3051F404
:1032F00081E080931B01ECE1F1E0808191810196F6
:103300009183808380912203882319F08F5F8093BB
:103310002203FF91EF91BF91AF919F918F917F9188
:103320006F915F914F913F912F910F900FBE0F9032
:103330001F90189510928C0310928A0310928903A3
:103340000895F894E0919303F09194039081809113
:103350008F0380958923808378948CE703C0815004
:1033600009F449C095E09A95F1F70000E0919003C7
:10337000F0919103208190918F03922381F3F8942F
:10338000E0918D03F0918E03908180918F03809561
:1033900089238083E0919303F0919403908180913D
:1033A0008F03892B80837894EFEBF3E03197F1F76B
:1033B00000C00000F894E0919303F0919403908191
:1033C00080918F03809589238083FAEBFA95F1F73A
:1033D00000C0E0919003F0919103908180918F0360
:1033E000982381E009F080E07894E3E3F3E03197FB
:1033F000F1F700C000000895F894E0918D03F0917A
:103400008E03208190918F03909592239083E09179
:103410009303F0919403208190918F03922B9083DA
:1034200080FF13C08AE18A95F1F700C0E0918D0317
:10343000F0918E03908180918F03892B8083789403
:1034400082E98A95F1F700C008958DEA8A95F1F72F
:103450000000E0918D03F0918E03908180918F03A5
:10346000892B808378948DE08A95F1F70000089588
:10347000EF92FF920F931F93CF93DF93F82EC8E044
:10348000D0E011E001E0E12C802F912F9F2109F481
:103490008E2D0E94FC19110F21972097A9F7DF911B
:1034A000CF911F910F91FF90EF900895F894E091C4
:1034B0008D03F0918E03908180918F0380958923F5
:1034C0008083E0919303F0919403908180918F0326
:1034D000892B808385E08A95F1F70000E0919303C2
:1034E000F0919403908180918F038095892380834C
:1034F0008AE18A95F1F700C0E0919003F091910381
:10350000208190918F0378948DE88A95F1F70000DF
:10351000292381E0921380E008950F931F93CF93A6
:10352000DF938C0185E50E94381AE801085F1F4F80
:1035300089910E94381AC017D107D1F7DF91CF9136
:103540001F910F910895E0918B038E27E82FF0E0F3
:10355000E75BFE4F808180938B030895DF92EF92AB
:10356000FF920F931F93CF93DF9310928B03809161
:103570008A0381116EC00E94A119811107C01092A7
:103580008C0310928A031092890372C080EF0E940C
:10359000381AEE24E394C0E0F12CD1E011E0D12CF4
:1035A0000E94561A082F0E94561A013019F48130D1
:1035B000F1F441C0081324C080918C03D81750F453
:1035C000EC2FF0E0EF57FC4F80818E21012F29F482
:1035D0000D2D03C0012FD8130D2D011106C0D930B8
:1035E00008F03FC0D09389033CC0013049F4EC2F70
:1035F000F0E0EF57FC4F80818E298083012F09C0B6
:10360000EC2FF0E0EF57FC4F90818E2D80958923B1
:103610008083802F0E94FC19DF5FEE0C49F4EC2FB1
:10362000F0E0EF57FC4F80810E94A31ACF5FE12E9C
:10363000C83008F4B5CFD13460F080918B0381118C
:1036400008C0F0928C03F1100EC081E080938A03D1
:103650000AC010928C0310928A031092890380E0B2
:1036600007C0FD2ECDCF80918103882391F381E0A7
:10367000DF91CF911F910F91FF90EF90DF90089510
:1036800010928C0310928A03109289030E94AE1A42
:1036900008950E94AE1A0895FF920F931F93CF933F
:1036A000DF93CDB7DEB728970FB6F894DEBF0FBE15
:1036B000CDBF89E893E0DE011196E1E8F3E02191C6
:1036C0002D93E817F907D9F7F0908C0300918A033E
:1036D0001091890380E480938C0310928A030E94E6
:1036E000AE1A882399F0998180918103981310C0B4
:1036F000FE013296A2E8B3E0CE01099631912D91F8
:10370000321308C0E817F907C9F706C080E005C002
:1037100080E003C080E001C081E09E01275F3F4F51
:10372000A1E8B3E0FE01319691919D93E217F30772
:10373000D9F7F0928C0300938A031093890328969B
:103740000FB6F894DEBF0FBECDBFDF91CF911F91B2
:103750000F91FF90089550939403409393037093B7
:103760008E0360938D03909391038093900381E087
:10377000022E01C0880F0A94EAF780938F032093EA
:1037800092030895E0919003F091910390818091CC
:103790008F0389230895E0918D03F0918E0390812A
:1037A00080918F03892B8083E0919303F0919403A0
:1037B000908180918F03892B80830895CF93DF932D
:1037C000C82FDFB7F894E0918D03F0918E039081BC
:1037D00080918F03809589238083E0919303F091FA
:1037E0009403908180918F03892B808385E08A9553
:1037F000F1F70000CC2399F0E0919303F09194034A
:10380000908180918F03809589238083E0918D033F
:10381000F0918E03908180918F03892B808380E2C9
:103820008A95F1F7E0919003F09191039081809156
:103830008F03892309F4C0E085E78A95F1F700003A
:10384000E0918D03F0918E03908180918F03892BFD
:103850008083E0919303F0919403208190918F03F2
:1038600090959223908361110E94CB1BDFBF8AE168
:103870008A95F1F700C08C2FDF91CF910895E091E8
:103880009303F0919403908180918F038095892315
:103890008083089560E081700E94DE1B0895CF93BD
:1038A000DF93C82FD8E08C2F81700E944A1CC695E8
:1038B0008111C068D150B9F78C2FDF91CF91089555
:1038C000CF93DF93C82FD8E0D13031F060E08C2F58
:1038D00081700E94DE1B05C061E08C2F81700E9408
:1038E000DE1BC6958111C068D15071F78C2FDF9116
:1038F000CF910895EF92FF920F931F93CF93DF9391
:10390000E82EEB01F42E0E94A119209769F085E5BD
:103910000E944F1C8E01085F1F4F89910E944F1C0F
:10392000C017D107D1F703C08CEC0E944F1CFF20B9
:1039300021F08E2D0E94601C03C08E2D0E944F1C12
:10394000DF91CF911F910F91FF90EF9008958FEF2E
:103950000E944F1C089540E00E947A1C089541E0A7
:103960000E947A1C0895882311F02B9A01C02B988D
:103970008AE68A95F1F700C02D9A85E38A95F1F7DA
:1039800000002D988AE68A95F1F700C008950F93FC
:103990001F93CF93DF93082F862F2A980E94B31C82
:1039A000C8E0D0E010E8812F80230E94B31C169558
:1039B00021972097C1F72A9ADF91CF911F910F91FC
:1039C000089560E00E94C71C089561E00E94C71C32
:1039D0000895CF93DF9380E40E94E11C80EB0E9466
:1039E000E11C80E10E94E11C80E00E94E11CC0E635
:1039F000D3E080E00E94E51C21972097D1F7DF916A
:103A0000CF91089584B18C6384B92A988FE097E2AE
:103A10000197F1F700C000002C988FE19EE4019718
:103A2000F1F700C000002C9A80E20E94E11C80E9BE
:103A30000E94E11C84EA0E94E11C8FE20E94E11CCA
:103A400080E40E94E11C80EB0E94E11C80E10E9466
:103A5000E11C80E00E94E11C88EC0E94E11C81EAEC
:103A60000E94E11C8CEA0E94E11C87E00E94E11C9C
:103A70008FEA0E94E11C0E94E91C87EA0E94E11C77
:103A80009FEF24E38CE0915020408040E1F700C09C
:103A9000000086EA0E94E11C9FEF29E688E1915030
:103AA00020408040E1F700C0000008959F92AF924F
:103AB000BF92CF92DF92EF92FF920F931F93CF931B
:103AC000DF93A12CB12C912C80E090E06C0128E0D8
:103AD000C20ED11C20912503332727FD30952C15CC
:103AE0003D05C4F520911F01332727FD3095281788
:103AF0003907D4F1892D806B0E94E11C10912603B7
:103B0000C12FDD27C7FDD095E0902001FF24E7FC01
:103B1000F094CE0195958795959587959595879580
:103B20009595879580610E94E11C812F8F700E947E
:103B3000E11CEC16FD0674F08E010A0D1B1D0B56E0
:103B40001C4FF80181918F010E94E51C2196EC1613
:103B5000FD06BCF79394F0E6AF0EB11C28E4C21644
:103B6000D10411F0C601B2CF8FE5809326031092E5
:103B7000200180E48093250310921F01DF91CF91F3
:103B80001F910F91FF90EF90DF90CF90BF90AF907B
:103B90009F900895E0912603FF27E7FDF0958E178B
:103BA0009F0714F48093260380912001992787FDB5
:103BB00090958417950714F4409320018091250374
:103BC000992787FD90956817790714F4609325036A
:103BD00080911F01992787FD90958217930714F410
:103BE00020931F010895E5E9F3E085EF96E0119237
:103BF000E817F907E1F720E430E04FE550E060E036
:103C000070E080E090E00E94CA1D109224031092A0
:103C1000230310922A031092290310922803109272
:103C2000270308958036910508F064C0613471055A
:103C300008F060C0452B69F19B01772314F4295FDC
:103C40003F4F35952795359527953595279540E62E
:103C5000429FF001439FF00D1124E80FF91FEB562E
:103C6000FC4F9B0127703078332334F42150310905
:103C7000286F3F6F2F5F3F4F41E050E0DA0102C0F5
:103C8000AA0FBB1F2A95E2F79D013081232B2083C9
:103C90002DC09B01772314F4295F3F4F359527955D
:103CA000359527953595279540E6429FF001439F2E
:103CB000F00D1124E80FF91FEB56FC4F9B01277004
:103CC0003078332334F421503109286F3F6F2F5F50
:103CD0003F4F41E050E0DA0102C0AA0FBB1F2A9516
:103CE000E2F79D0120953081232320839B01AC01C5
:103CF0000E94CA1D0895282F30E030932A03209394
:103D00002903262F30E03093280320932703909136
:103D10001E01292F220F290F220F289F802D1124E9
:103D200080932403990F990F990F969F602D11246A
:103D30006093230308952F923F924F925F926F9268
:103D40007F928F929F92AF92BF92CF92DF92EF922B
:103D5000FF920F931F93CF93DF93EC017B016A01D6
:103D6000C901861B970BAC0122F444275527481B39
:103D7000590BB6016C1B7D0BCB01992324F48827CA
:103D80009927861B970B71E060E0841795070CF06C
:103D900070E0A72EB62EA114B10451F09C2D8D2DEC
:103DA0006901292F382F9C2F8D2FE701E92EF82E3E
:103DB000CC16DD0654F49E2D8F2D7901292F382F36
:103DC0009C2F8D2FE601C92ED82E16012C1A3D0AE4
:103DD000C9018E199F093C0122F466247724681AD0
:103DE000790A410133201CF48FEF881A980A9594C0
:103DF0008794E216F30624F444244394512C03C020
:103E000044244A94542CCC16DD06CCF0A114B10401
:103E100031F0A801BE01C7010E94121E05C0A80111
:103E2000B701CE010E94121E8618970822F4E40CF6
:103E3000F51C820C931C2196CC16DD063CF7DF9115
:103E4000CF911F910F91FF90EF90DF90CF90BF9097
:103E5000AF909F908F907F906F905F904F903F902A
:103E60002F9008950F931F9389019B01240F351FF5
:103E700021503109AC010E949B1E1F910F910895A2
:103E8000AF92BF92CF92DF92EF92FF920F931F9368
:103E9000CF93DF93EC015B0169017C01E40EF51E19
:103EA0008E159F0554F49801A601B501CE010E941C
:103EB000321F2196CE15DF05B4F3DF91CF911F910C
:103EC0000F91FF90EF90DF90CF90BF90AF9008954B
:103ED0002F923F924F925F926F927F928F929F921A
:103EE000AF92BF92CF92DF92EF92FF920F931F9308
:103EF000CF93DF93CDB7DEB72C970FB6F894DEBF24
:103F00000FBECDBF1901803691050CF09EC0613403
:103F100071050CF09AC0AE2CB12C9501220F331F05
:103F2000220F331F2A0D3B1D280F391F2150310945
:103F300033230CF48AC09501220F331F220F331F45
:103F4000220F331F260F371F2150310933230CF462
:103F50007CC050E09A01220F331F220F331F420F03
:103F6000531F45019B838A839D838C831E82465306
:103F70005B4F9A01281B390B3A8729876F83788713
:103F800028011E2D3E81353009F451C0E985FA859E
:103F90008A819B81E80FF91F04914AC09C8590FF9C
:103FA00013C0AB85A13039F4A101B6018A819B8190
:103FB0000E94121E1EC081019501A501B7018981D1
:103FC000962D0E94401F15C04214530491F0BB85EA
:103FD000B13039F4A201B6018A819B810E94121E80
:103FE00008C082019501A501B7018981962D0E9423
:103FF000401FEC85E695EC877A94E80CF91CFFEFFE
:10400000CF1ADF0A7110CACF1B852E812F5F2E8336
:104010008C819D81880D991D9D838C83AA81BB8194
:104020001196BB83AA83263009F0ACCF0EC000E006
:10403000BC81B9836D80EF80F884CE2CDF2C68942E
:10404000772473F80C871B87A9CF2C960FB6F894AA
:10405000DEBF0FBECDBFDF91CF911F910F91FF90BB
:10406000EF90DF90CF90BF90AF909F908F907F9018
:104070006F905F904F903F902F900895EF92FF9236
:104080000F931F93CF93DF93C0911E016091230381
:10409000772767FD709590912403EC2E00E010E0E7
:1040A0002FEF30E0482F892F992787FD90950E94A8
:1040B000681FEC2EF12CE701CC0FDD1FCE0DDF1DAC
:1040C000CC0FDD1FEE0CFF1CEE0CFF1CEE0CFF1CDA
:1040D0008091290390912A0301968031910528F45B
:1040E00090932A038093290313C010922A031092FD
:1040F000290380912703909128038730910530F49C
:104100000196909328038093270302C00E94F31D19
:10411000809129038C9FC02D1124C093240380918A
:1041200027038E9DE02C1124E092230380E0DF9191
:10413000CF911F910F91FF90EF9008951F93CF9310
:10414000DF93EC018881882351F010E00E943E202B
:104150001F5FFE01E10FF11D80818111F7CFDF911B
:10416000CF911F91089540E150E0BC0188E493E0B5
:104170000E9476291092580388E493E00E949E20C2
:1041800008950F931F93480F591F415051098901FA
:104190009B010E949B1E1F910F910895811101C0E8
:1041A00081E080931E0108950895CF93DF93CDB7EA
:1041B000DEB761970FB6F894DEBF0FBECDBF4AE001
:1041C000BE016F5F7F4F0E94FE29CE0101960E94C3
:1041D0009E2061960FB6F894DEBF0FBECDBFDF9173
:1041E000CF9108956091270370912803673071057E
:1041F00050F46F5F7F4F709328036093270380E034
:104200000E947B1E08950E94F31D089560E080E0E7
:104210000E947B1E089590E02091290330912A038B
:104220002817390738F0281B390B30932A032093BD
:10423000290315C0409127035091280341155105CA
:1042400031F0415051095093280340932703205FD8
:104250003F4F281B390B30932A0320932903609189
:104260002703809129030E947B1E08958A3019F448
:104270000E94F22004C0803210F00E943E2080E0B4
:1042800090E008950C9412050C943005909322014F
:104290008093210170932401609323010895CF93AB
:1042A000DF93EC0185EC99E00E944718CE010E9453
:1042B0006B1889E492E00E9447180E9488072FEF4C
:1042C00084E39CE0215080409040E1F700C0000072
:1042D00081E090E0DF91CF9108959F92AF92BF92DD
:1042E000CF92DF92EF92FF920F931F93CF93DF93C2
:1042F000EC015B01942EE22EFC0101900020E9F715
:10430000CF0101978C1B9D0B0E942C286C01BE01D4
:104310000E949729B801C6010E948529F12C1E141C
:104320001F045CF4C1E0D0E0B80180E090E00E949E
:1043300085292196EC16FD06BCF70097B1F0FC012B
:1043400001900020E9F73197E81BF90B292D30E0A7
:10435000E217F30750F4BC01C5010E949729C6017A
:104360000E94C42880E090E007C0F5011082C601D9
:104370000E94C42881E090E0DF91CF911F910F91BE
:10438000FF90EF90DF90CF90BF90AF909F900895F7
:10439000DF92EF92FF920F931F93CF93DF938C01E5
:1043A000EB01F42EFB0101900020E9F73197CF01DA
:1043B000861B970B0E942C28D82EE92ECE010E9436
:1043C000682A2881222351F0FE013196AD2DBE2DA1
:1043D0002F112D9321912111FBCF02C0AD2DBE2DA8
:1043E0001C926D2D7E2DC8010E9497298D2D9E2D2A
:1043F0000E94C428DF91CF911F910F91FF90EF9001
:10440000DF9008950E9438188AE00E9423180E94C5
:1044100088072FEF89E698E1215080409040E1F72E
:1044200000C000000E94880781E090E008958BE4BE
:1044300092E00E9402220895E0912301F09124016C
:10444000099581159140C1F70895CF92DF92EF92BF
:10445000FF920F931F93CF93DF936C017B01DC01DD
:104460001C928C01C0E0D0E0E0912301F091240186
:1044700009958115B1E09B07B1F09C0120523109EB
:104480002036310558F4CE15DF0574F7F801819315
:104490002196D80111961C928F01E6CF8D3091059F
:1044A00011F00A9709F781E090E0F60120812111CF
:1044B00002C080E090E0DF91CF911F910F91FF90BB
:1044C000EF90DF90CF900895CF92DF92EF92FF921E
:1044D0000F931F93CF93DF93CDB7DEB7C059D14071
:1044E0000FB6F894DEBF0FBECDBF8C016B010E94EA
:1044F0001C228DED99E00E944718C8010E946B189C
:104500008BED99E00E9447180E9488072FEF89E6FB
:1045100098E1215080409040E1F700C000000E94E7
:10452000880708EC10E068EC70E0CE0101960E946C
:1045300025227C018130910509F064C065E572E0B7
:10454000CE0101960E94BD29892B09F45BC06BE561
:1045500072E0CE0101960E94BD29892B31F081E0E5
:10456000F601E353FF4F80830CC064E672E0CE0196
:1045700001960E94BD29892B21F0F601E353FF4FDC
:1045800010820FE612E021E048ECBE0167537F4F36
:10459000CE0101960E946D2142E2BE0167537F4F1A
:1045A000CB010E94C821BE0167537F4FC6018056D0
:1045B0009F4F0E94972923E048ECBE0167537F4F2D
:1045C000CE0101960E946D2142E2BE0167537F4FEA
:1045D000CB010E94C821BE0167537F4FC6018C5496
:1045E0009F4F0E94972968EC70E0CE0101960E94CF
:1045F0002522892BC1F3BE016F5F7F4FC6010E9448
:10460000972908C0015011090115110509F08BCF38
:10461000E12CF12CC701C057DE4F0FB6F894DEBF76
:104620000FBECDBFDF91CF911F910F91FF90EF9003
:10463000DF90CF900895AF92BF92CF92DF92EF922A
:10464000FF920F931F93CF93DF93CDB7DEB7CE5575
:10465000D1400FB6F894DEBF0FBECDBF7C01809174
:104660002B03811108C0ECE2F3E001E010E081913E
:10467000882371F002C000E010E0B70190E00E94D2
:104680006422F801E55DFC4F8081108290E076C0E5
:104690000F5F1F4F0F30110551F781E792E00E9425
:1046A00002220E9488072FEF89E698E1215080407E
:1046B0009040E1F700C000000E9488070F2EFBE247
:1046C000CF2EF3E0DF2EF02D00E010E0AA24A3941B
:1046D000B12C6CE271E0CE0101960E942522019777
:1046E00041F564E672E0CE0101960E94BD29892B56
:1046F00001F10FE612E020E042E3BE01635D7E4F70
:10470000CE0101960E946D2109E712E021E042E30B
:10471000BE01635D7E4FCB010E946D21CE01835DA2
:104720009E4F0E945829F60181936F010A2D1B2D7F
:10473000D0CF0F5F1F4F083C11055CF280912B0317
:10474000811108C0ECE2F3E001E010E081918823E0
:1047500071F002C000E010E0B70190E00E94642216
:10476000F801E55DFC4F8081108290E007C00F5F8B
:104770001F4F0F30110551F780E090E0C25ADE4F15
:104780000FB6F894DEBF0FBECDBFDF91CF911F9162
:104790000F91FF90EF90DF90CF90BF90AF90089572
:1047A0002F923F924F925F926F927F928F929F9241
:1047B000AF92BF92CF92DF92EF92FF920F931F932F
:1047C000CF93DF93CDB7DEB7C659D1090FB6F894B2
:1047D000DEBF0FBECDBF3C011B012A0155230CF4E7
:1047E000EEC0A12CB12C812C912C0E941C2281EDB9
:1047F00099E00E944718C3010E9438188EEC99E096
:104800000E944718C1010E943818E0912101F091DF
:1048100022018AE109950E9488072FEF89E698E135
:10482000215080409040E1F700C000000E948807BE
:104830002FEF89E698E1215080409040E1F700C0D9
:1048400000000E9488072FEF89E698E12150804000
:104850009040E1F700C000000E94880702E310E0EA
:104860000E9488072FEF80E792E02150804090401F
:10487000E1F700C0000064E670E0CE0101960E94FE
:104880002522019731F56BE772E0CE0101960E9477
:10489000BD29892B09F096C061E872E0CE0101962E
:1048A0000E94BD29892BA9F009E712E021E042E32B
:1048B000BE016B597F4FCE0101960E946D21CE0142
:1048C0008B599F4F0E9458295C014114510431F4C7
:1048D0007CC0015011090115110511F61A141B04B1
:1048E0000CF075C00F2EF8E2EF2EF12CF02D0E9487
:1048F00088072FEF84E39CE0215080409040E1F74F
:1049000000C0000064E670E0CE0101960E942522FE
:104910006C018130910509F043C067E872E0CE0177
:1049200001960E94BD29892BD9F10FE612E021E002
:1049300042E3BE016B597F4FCE0101960E946D216B
:10494000892B71F5CE018B599F4F0E9458298A15EA
:104950009B0531F528E042E3BE016B597F4FCE0144
:1049600001960E946D21892B39F4CE018B599F4FFE
:104970000E945829892B81F10FE612E026E042E3DC
:10498000BE016B597F4FCE0101960E946D21892B8C
:1049900039F4CE018B599F4F0E945829892BE1F0A1
:1049A00081E0E81AF108E114F10409F0A0CF9FEFCB
:1049B000891A990A481459040CF017CF0BC0C12C5E
:1049C000D12C0AC0C12CD12C07C06C0105C0C12C50
:1049D000D12C02C0C12CD12CC601CA56DF4F0FB654
:1049E000F894DEBF0FBECDBFDF91CF911F910F9125
:1049F000FF90EF90DF90CF90BF90AF909F908F90FF
:104A00007F906F905F904F903F902F900895AF925E
:104A1000BF92CF92DF92EF92FF920F931F93CF93AB
:104A2000DF93CDB7DEB7C659D1090FB6F894DEBF14
:104A30000FBECDBF6C018FE892E00E94022208EC0D
:104A400010E064E670E0CE0101960E9425220197F5
:104A500009F03FC068E972E0CE0101960E94BD29CD
:104A6000892BB9F16EE972E0CE0101960E94BD2951
:104A70007C010FE612E021E042E3BE016B597F4F5B
:104A80000E946D21892B61F5CE018B599F4F0E94A9
:104A900058295C0122E042E3BE016B597F4FC701F8
:104AA0000E946D21892BF9F4CE018B599F4F0E94F2
:104AB0005829BC010097D1F0F6019183808324E648
:104AC0002A9DC0012B9D900D11240E94EF27CB0140
:104AD00012C0015011090115110509F0B2CF09C02A
:104AE0008FEF9FEF08C08FEF9FEF05C08FEF9FEF15
:104AF00002C08FEF9FEFCA56DF4F0FB6F894DEBFAC
:104B00000FBECDBFDF91CF911F910F91FF90EF901E
:104B1000DF90CF90BF90AF900895E898E9E6F0E07D
:104B200080818C7F80835298E09AE89A78940895E7
:104B3000E898E09A08951F920F920FB60F921124F1
:104B40008F9380913B03833018F010923B0303C096
:104B50008F5F80933B038F910F900FBE0F901F903C
:104B60001895E998E9E6F0E08081877F808380816D
:104B70008460808353985B9AE19AE99A78940895C7
:104B8000E998E19A08951F920F920FB60F9211249F
:104B90008F934B9B0CC080913A03843620F081E0C8
:104BA00080933A0308C08F5F80933A0304C0109249
:104BB000220310923A038F910F900FBE0F901F9017
:104BC000189561157105B1F0FC01680F791F80E03F
:104BD00058E048E12191952F322F382730FF0CC043
:104BE00084278695806826959150B1F7E617F707D8
:104BF00089F7089580E008958695F5CFFB0121811E
:104C000030E0322F22279081292B803179F42E7FBA
:104C1000A901440F551F440F551F440F551F96817E
:104C20002CE030E0291B3109240F351F33232CF4ED
:104C300031952195310961E001C060E0883211F0C1
:104C4000823269F484818076803231F0803431F0B0
:104C5000811105C0287F03C02C7F01C02E7FC901B0
:104C6000929582958F7089279F708927AC01440F98
:104C7000551F880F991F880F991F880F991F840F40
:104C8000951F2F703327A9015695542F4427579508
:104C90004795322F2227330F240F351F611113C080
:104CA0003E5F232F332726952695280F391FC901EC
:104CB0008A5D9D4F8930974018F080ED97E0089508
:104CC000822F932F0895232F332726952695820F21
:104CD000931F22273327281B390BE9CFEF92FF922E
:104CE0000F931F93CF93DF93E62EF72E042F5D983B
:104CF0002AE02A95F1F7BC018EEB0E94AB1C002341
:104D000049F0CE2DDF2D10E00E94A71C89931F5F74
:104D10001013FACF69E070E08E2D9F2D0E94E125DF
:104D2000882311F083E001C080E05D9ADF91CF918C
:104D30001F910F91FF90EF900895559A5D9A8FE41F
:104D400096E40197F1F700C000005D988AE08A952B
:104D5000F1F70895CF93DF93EC015D988AE08A958F
:104D6000F1F7F8940E94A119BE0184EB0E94AB1CDC
:104D700081E00E944A1CC82F0E94A11978945D9A74
:104D800081E0C11101C080E0DF91CF9108951F93B0
:104D9000CF93DF93182FEB015D989AE09A95F1F786
:104DA000F8940E94A11978940E94C21B882391F064
:104DB000113041F0F894BE0184E40E94AF1C789455
:104DC00080E009C0F894BE0184E40E94AB1C789492
:104DD00080E001C082E05D9ADF91CF911F9108953C
:104DE0005D988AE08A95F1F781E00E944A1C5D9AFD
:104DF00091E0811190E0892F0895EF92FF920F9337
:104E00001F93CF93DF93CDB7DEB727970FB6F894F4
:104E1000DEBF0FBECDBF8B01473008F463C09C01DD
:104E200029513C4F273F3A4208F05EC0992334F4A1
:104E3000919581959109EE24E39401C0E12CF12C28
:104E40006AE070E00E94EF2721E02F0DE1E0F0E042
:104E5000EC0FFD1FEF0DF11DF7FCFA95805D8083CF
:104E6000862F972F1816190614F4F22EE9CF822FE9
:104E7000EE2059F09DE2FE01E20FF11D27FDFA95AB
:104E80009183882354F430E027C09BE2FE01E20FB7
:104E9000F11D27FDFA959183F4CF90E04EE202C018
:104EA000932F282F31E0390F8FEF820FE1E0F0E0F0
:104EB000EC0FFD1FE20FF11D2081F801E90FF11D3C
:104EC0002083811107C0F801E30FF11D408332E018
:104ED000390FE6CF882324F7F801E30FF11D108284
:104EE00080E003C081E001C081E027960FB6F8940E
:104EF000DEBF0FBECDBFDF91CF911F910F91FF900D
:104F0000EF900895DF92EF92FF920F931F93CF934C
:104F1000DF93CDB7DEB729970FB6F894DEBF0FBE8B
:104F2000CDBF8C017B015D988AE08A95F1F70E94E4
:104F3000A11949E0BE016F5F7F4FC8010E946E2634
:104F4000D82E81110AC0BE016F5F7F4FF8018081AA
:104F50000E94FE25F701918380835D9A8D2D29960D
:104F60000FB6F894DEBF0FBECDBFDF91CF911F917A
:104F70000F91FF90EF90DF900895EF92FF920F93C3
:104F80001F93CF93DF93CDB7DEB729970FB6F89471
:104F9000DEBF0FBECDBFE82E8B0149E0BE016F5FC3
:104FA0007F4F80E090E00E946E26F82E811109C0AC
:104FB000BE016F5F7F4F8E2D0E94FE25F801918309
:104FC00080838F2D29960FB6F894DEBF0FBECDBF1C
:104FD000DF91CF911F910F91FF90EF90089597FB74
:104FE000072E16F4009407D077FD09D00E941828E8
:104FF00007FC05D03EF4909581959F4F08957095DC
:1050000061957F4F0895EE0FFF1F0590F491E02DFD
:105010000994A29FB001B39FC001A39F700D811D91
:105020001124911DB29F700D811D1124911D0895B1
:10503000AA1BBB1B51E107C0AA1FBB1FA617B707BE
:1050400010F0A61BB70B881F991F5A95A9F78095DA
:105050009095BC01CD010895CF93DF9382309105E7
:1050600010F482E090E0E091F706F091F80620E07D
:1050700030E0A0E0B0E0309739F14081518148172D
:105080005907B8F04817590771F482819381109736
:1050900029F013969C938E9312972CC09093F80648
:1050A0008093F70627C02115310531F042175307C9
:1050B00018F0A901DB0101C0EF019A01BD01DF0178
:1050C0000280F381E02DD7CF21153105F9F0281B9F
:1050D000390B2430310580F48A819B81611571057B
:1050E00021F0FB019383828304C09093F8068093A0
:1050F000F706FE01329644C0FE01E20FF31F8193D2
:10510000919322503109398328833AC02091F506C2
:105110003091F606232B41F42091040130910501D2
:105120003093F6062093F506209102013091030199
:105130002115310541F42DB73EB74091060150913C
:105140000701241B350BE091F506F091F606E217F6
:10515000F307A0F42E1B3F0B2817390778F0AC019A
:105160004E5F5F4F2417350748F04E0F5F1F509377
:10517000F6064093F5068193919302C0E0E0F0E0DB
:10518000CF01DF91CF910895CF93DF93009709F47A
:1051900087C0FC01329713821282C091F706D0912A
:1051A000F806209781F420813181280F391F8091E2
:1051B000F5069091F6068217930779F5F093F606B7
:1051C000E093F5066DC0DE0120E030E0AE17BF07CA
:1051D00050F412964D915C9113979D014115510524
:1051E00009F1DA01F3CFB383A28340815181840FA7
:1051F000951F8A179B0771F48D919C911197840FCD
:10520000951F02969183808312968D919C9113979E
:10521000938382832115310529F4F093F806E093F6
:10522000F7063EC0D9011396FC93EE9312974D9169
:105230005D91A40FB51FEA17FB0779F48081918176
:10524000840F951F0296D90111969C938E938281AB
:10525000938113969C938E931297E0E0F0E08A81FD
:105260009B81009719F0FE01EC01F9CFCE01029667
:1052700028813981820F931F2091F5063091F6061F
:105280002817390769F4309729F41092F80610921C
:10529000F70602C013821282D093F606C093F50679
:1052A000DF91CF91089581E090E0F8940C94C82D9F
:1052B000FC0188279927E89421912032E9F32930CD
:1052C00010F02E30C8F32B3241F02D3239F46894AF
:1052D00004C00E94092A820F911D219120532A3077
:1052E000C0F31EF4909581959F4F0895FB01DC015A
:1052F0004150504048F005900D920020C9F701C080
:105300001D9241505040E0F7089542EA52E00E9459
:10531000D7290895FB01DC0104C08D91019080190B
:1053200021F441505040C8F7881B990B0895FB01A8
:10533000DC0101900D920020E1F70895FB01DC01F2
:105340000D900020E9F711974150504028F001904E
:1053500000200D92C9F708951C920895FB01DC010D
:105360004150504048F001900D920020C9F701C013
:105370001D9241505040E0F70895FB015191552393
:10538000A9F0BF01DC014D9145174111E1F759F436
:10539000CD010190002049F04D9140154111C9F314
:1053A000FB014111EFCF81E090E001970895FA01F0
:1053B000A191B081009719F41097E1F0CD01DC01C3
:1053C000CD010D90002011F4C00113C0FB0121910B
:1053D000222319F02015D9F7F3CFFB0121912015D5
:1053E00019F41E92119606C02223C1F70D900020D9
:1053F000A1F7D001FA01A193B0830895BB274A30E9
:1054000031F4992322F4BDE2909581959F4F0C943D
:10541000122A7AE0979F902D879F802D910D11245D
:105420000895BB27FB015527AA27880F991FAA1F9C
:10543000A41710F0A41B83955051B9F7A05DAA33AF
:1054400008F0A95DA193009779F7B111B19311927A
:10545000CB010C94F12CA0E0B0E0E1E3FAE20C9473
:10546000A12DFE01359661917191AF018091FB06EE
:105470009091FC060E94B72AE2E00C94BD2DA0E0BA
:10548000B0E0E5E4FAE20C949F2DFE0137966191BD
:1054900071910BEF16E0D8018D919C91DC01139670
:1054A0002C911397286013962C93AF010E94B72A72
:1054B000D801ED91FC912381277F2383E4E00C94B4
:1054C000BB2D6091FB067091FC060E94012D089592
:1054D0000F931F93CF93DF93E091FB06F091FC06AF
:1054E000238121FF1BC0EC0100E010E08991609155
:1054F000FB067091FC06DB011896ED91FC91199763
:10550000882331F00995892B89F30FEF1FEFEECF38
:105510008AE00995892B11F4C80102C08FEF9FEF33
:10552000DF91CF911F910F910895AEE0B0E0EBE9CC
:10553000FAE20C949F2D0D891E898EE08C831A83CC
:1055400009838FEF9FE79E838D83AE01475E5F4F98
:105550006F89788DCE0101960E94B72AEF81F88578
:10556000E00FF11F10822E96E4E00C94BB2DACE00E
:10557000B0E0EDEBFAE20C94912D7C016B018A0115
:10558000FC0117821682838181FFBDC1CE01019685
:105590004C01F7019381F60193FD859193FF819171
:1055A0006F01882309F4ABC1853239F493FD8591ED
:1055B00093FF81916F01853229F4B70190E00E9439
:1055C000012DE7CF512C312C20E02032A0F48B327A
:1055D00069F030F4803259F0833269F420612CC0D4
:1055E0008D3239F0803339F4216026C02260246086
:1055F00023C0286021C027FD27C030ED380F3A3086
:1056000078F426FF06C0FAE05F9E300D1124532E79
:1056100013C08AE0389E300D1124332E20620CC056
:105620008E3221F426FD6BC1206406C08C3611F445
:10563000206802C0883641F4F60193FD859193FFFE
:1056400081916F018111C1CF982F9F7D9554933027
:1056500028F40C5F1F4FFFE3F9830DC0833631F050
:10566000833771F0833509F05BC022C0F801808177
:1056700089830E5F1F4F44244394512C540115C05D
:105680003801F2E06F0E711CF801A080B18026FF96
:1056900003C0652D70E002C06FEF7FEFC5012C875E
:1056A0000E94E62C2C0183012C852F77222E17C017
:1056B0003801F2E06F0E711CF801A080B18026FF66
:1056C00003C0652D70E002C06FEF7FEFC5012C872E
:1056D0000E94DB2C2C012C852068222E830123FCC8
:1056E0001BC0832D90E048165906B0F4B70180E244
:1056F00090E00E94012D3A94F4CFF50127FC8591AA
:1057000027FE81915F01B70190E00E94012D3110C9
:105710003A94F1E04F1A51084114510471F7E5C071
:10572000843611F0893639F5F80127FF07C060810A
:105730007181828193810C5F1F4F08C060817181EC
:10574000882777FD8095982F0E5F1F4F2F76B22EFA
:1057500097FF09C090958095709561957F4F8F4F09
:105760009F4F2068B22E2AE030E0A4010E94332D22
:10577000A82EA81844C0853729F42F7EB22E2AE01F
:1057800030E025C0F22FF97FBF2E8F36C1F018F41C
:10579000883579F0B4C0803719F0883721F0AFC070
:1057A0002F2F2061B22EB4FE0DC08B2D8460B82E39
:1057B00009C024FF0AC09F2F9660B92E06C028E0BA
:1057C00030E005C020E130E002C020E132E0F80125
:1057D000B7FE07C060817181828193810C5F1F4F8A
:1057E00006C06081718180E090E00E5F1F4FA401D0
:1057F0000E94332DA82EA818FB2DFF77BF2EB6FED2
:105800000BC02B2D2E7FA51450F4B4FE0AC0B2FCA1
:1058100008C02B2D2E7E05C07A2C2B2D03C07A2C90
:1058200001C0752C24FF0DC0FE01EA0DF11D808121
:10583000803311F4297E09C022FF06C0739473944B
:1058400004C0822F867809F0739423FD13C020FFD3
:1058500006C05A2C731418F4530C5718732C731475
:1058600068F4B70180E290E02C870E94012D7394C8
:105870002C85F5CF731410F4371801C0312C24FF98
:1058800012C0B70180E390E02C870E94012D2C8587
:1058900022FF17C021FF03C088E590E002C088E71F
:1058A00090E0B7010CC0822F867859F021FD02C02C
:1058B00080E201C08BE227FD8DE2B70190E00E94FB
:1058C000012DA51438F4B70180E390E00E94012D6A
:1058D0005A94F7CFAA94F401EA0DF11D8081B70123
:1058E00090E00E94012DA110F5CF332009F451CE94
:1058F000B70180E290E00E94012D3A94F6CFF701C3
:105900008681978102C08FEF9FEF2C96E2E10C9485
:10591000AD2DDC01CB01FC01F999FECF06C0F2BD33
:10592000E1BDF89A319600B40D9241505040B8F75D
:105930000895F999FECF92BD81BDF89A992780B557
:105940000895DC01A40FB51F4150504048F0CB0131
:10595000840F951F2E910E94B22C41505040D0F7D9
:105960000895262FF999FECF92BD81BDF89A01972F
:1059700000B4021639F01FBA20BD0FB6F894FA9A97
:10598000F99A0FBE0895DC01CB0103C02D910E944E
:10599000CE2C41505040D0F70895262FF999FECFD4
:1059A0001FBA92BD81BD20BD0FB6F894FA9AF99A3C
:1059B0000FBE01960895FC010590615070400110E2
:1059C000D8F7809590958E0F9F1F0895FC01615028
:1059D000704001900110D8F7809590958E0F9F1F11
:1059E0000895DC01FC01672F71917723E1F732976D
:1059F00004C07C916D9370836291AE17BF07C8F3AA
:105A000008950F931F93CF93DF93182F092FEB0166
:105A10008B8181FD03C08FEF9FEF20C082FF10C0FC
:105A20004E815F812C813D81421753077CF4E881D0
:105A3000F9819F012F5F3F4F39832883108306C070
:105A4000E885F985812F0995892B29F72E813F81DA
:105A50002F5F3F4F3F832E83812F902FDF91CF9178
:105A60001F910F910895FA01AA27283051F1203192
:105A700081F1E8946F936E7F6E5F7F4F8F4F9F4FE2
:105A8000AF4FB1E03ED0B4E03CD0670F781F891F24
:105A90009A1FA11D680F791F8A1F911DA11D6A0FF2
:105AA000711D811D911DA11D20D009F468943F91A5
:105AB0002AE0269F11243019305D3193DEF6CF01A4
:105AC0000895462F4770405D4193B3E00FD0C9F76A
:105AD000F6CF462F4F70405D4A3318F0495D31FDD7
